{"abi":[{"type":"constructor","inputs":[{"name":"owner","type":"address","internalType":"address"}],"stateMutability":"nonpayable"},{"type":"function","name":"CLOCK_MODE","inputs":[],"outputs":[{"name":"","type":"string","internalType":"string"}],"stateMutability":"view"},{"type":"function","name":"approve","inputs":[{"name":"to","type":"address","internalType":"address"},{"name":"tokenId","type":"uint256","internalType":"uint256"}],"outputs":[],"stateMutability":"nonpayable"},{"type":"function","name":"balanceOf","inputs":[{"name":"owner","type":"address","internalType":"address"}],"outputs":[{"name":"","type":"uint256","internalType":"uint256"}],"stateMutability":"view"},{"type":"function","name":"clock","inputs":[],"outputs":[{"name":"","type":"uint48","internalType":"uint48"}],"stateMutability":"view"},{"type":"function","name":"count","inputs":[],"outputs":[{"name":"","type":"uint256","internalType":"uint256"}],"stateMutability":"view"},{"type":"function","name":"createFor","inputs":[{"name":"owner","type":"address","internalType":"address"}],"outputs":[{"name":"projectId","type":"uint256","internalType":"uint256"}],"stateMutability":"nonpayable"},{"type":"function","name":"delegate","inputs":[{"name":"delegatee","type":"address","internalType":"address"}],"outputs":[],"stateMutability":"nonpayable"},{"type":"function","name":"delegateBySig","inputs":[{"name":"delegatee","type":"address","internalType":"address"},{"name":"nonce","type":"uint256","internalType":"uint256"},{"name":"expiry","type":"uint256","internalType":"uint256"},{"name":"v","type":"uint8","internalType":"uint8"},{"name":"r","type":"bytes32","internalType":"bytes32"},{"name":"s","type":"bytes32","internalType":"bytes32"}],"outputs":[],"stateMutability":"nonpayable"},{"type":"function","name":"delegates","inputs":[{"name":"account","type":"address","internalType":"address"}],"outputs":[{"name":"","type":"address","internalType":"address"}],"stateMutability":"view"},{"type":"function","name":"eip712Domain","inputs":[],"outputs":[{"name":"fields","type":"bytes1","internalType":"bytes1"},{"name":"name","type":"string","internalType":"string"},{"name":"version","type":"string","internalType":"string"},{"name":"chainId","type":"uint256","internalType":"uint256"},{"name":"verifyingContract","type":"address","internalType":"address"},{"name":"salt","type":"bytes32","internalType":"bytes32"},{"name":"extensions","type":"uint256[]","internalType":"uint256[]"}],"stateMutability":"view"},{"type":"function","name":"getApproved","inputs":[{"name":"tokenId","type":"uint256","internalType":"uint256"}],"outputs":[{"name":"","type":"address","internalType":"address"}],"stateMutability":"view"},{"type":"function","name":"getPastTotalSupply","inputs":[{"name":"timepoint","type":"uint256","internalType":"uint256"}],"outputs":[{"name":"","type":"uint256","internalType":"uint256"}],"stateMutability":"view"},{"type":"function","name":"getPastVotes","inputs":[{"name":"account","type":"address","internalType":"address"},{"name":"timepoint","type":"uint256","internalType":"uint256"}],"outputs":[{"name":"","type":"uint256","internalType":"uint256"}],"stateMutability":"view"},{"type":"function","name":"getVotes","inputs":[{"name":"account","type":"address","internalType":"address"}],"outputs":[{"name":"","type":"uint256","internalType":"uint256"}],"stateMutability":"view"},{"type":"function","name":"isApprovedForAll","inputs":[{"name":"owner","type":"address","internalType":"address"},{"name":"operator","type":"address","internalType":"address"}],"outputs":[{"name":"","type":"bool","internalType":"bool"}],"stateMutability":"view"},{"type":"function","name":"name","inputs":[],"outputs":[{"name":"","type":"string","internalType":"string"}],"stateMutability":"view"},{"type":"function","name":"nonces","inputs":[{"name":"owner","type":"address","internalType":"address"}],"outputs":[{"name":"","type":"uint256","internalType":"uint256"}],"stateMutability":"view"},{"type":"function","name":"owner","inputs":[],"outputs":[{"name":"","type":"address","internalType":"address"}],"stateMutability":"view"},{"type":"function","name":"ownerOf","inputs":[{"name":"tokenId","type":"uint256","internalType":"uint256"}],"outputs":[{"name":"","type":"address","internalType":"address"}],"stateMutability":"view"},{"type":"function","name":"renounceOwnership","inputs":[],"outputs":[],"stateMutability":"nonpayable"},{"type":"function","name":"safeTransferFrom","inputs":[{"name":"from","type":"address","internalType":"address"},{"name":"to","type":"address","internalType":"address"},{"name":"tokenId","type":"uint256","internalType":"uint256"}],"outputs":[],"stateMutability":"nonpayable"},{"type":"function","name":"safeTransferFrom","inputs":[{"name":"from","type":"address","internalType":"address"},{"name":"to","type":"address","internalType":"address"},{"name":"tokenId","type":"uint256","internalType":"uint256"},{"name":"data","type":"bytes","internalType":"bytes"}],"outputs":[],"stateMutability":"nonpayable"},{"type":"function","name":"setApprovalForAll","inputs":[{"name":"operator","type":"address","internalType":"address"},{"name":"approved","type":"bool","internalType":"bool"}],"outputs":[],"stateMutability":"nonpayable"},{"type":"function","name":"setTokenUriResolver","inputs":[{"name":"newResolver","type":"address","internalType":"contract IJBTokenUriResolver"}],"outputs":[],"stateMutability":"nonpayable"},{"type":"function","name":"supportsInterface","inputs":[{"name":"interfaceId","type":"bytes4","internalType":"bytes4"}],"outputs":[{"name":"","type":"bool","internalType":"bool"}],"stateMutability":"view"},{"type":"function","name":"symbol","inputs":[],"outputs":[{"name":"","type":"string","internalType":"string"}],"stateMutability":"view"},{"type":"function","name":"tokenURI","inputs":[{"name":"projectId","type":"uint256","internalType":"uint256"}],"outputs":[{"name":"","type":"string","internalType":"string"}],"stateMutability":"view"},{"type":"function","name":"tokenUriResolver","inputs":[],"outputs":[{"name":"","type":"address","internalType":"contract IJBTokenUriResolver"}],"stateMutability":"view"},{"type":"function","name":"transferFrom","inputs":[{"name":"from","type":"address","internalType":"address"},{"name":"to","type":"address","internalType":"address"},{"name":"tokenId","type":"uint256","internalType":"uint256"}],"outputs":[],"stateMutability":"nonpayable"},{"type":"function","name":"transferOwnership","inputs":[{"name":"newOwner","type":"address","internalType":"address"}],"outputs":[],"stateMutability":"nonpayable"},{"type":"event","name":"Approval","inputs":[{"name":"owner","type":"address","indexed":true,"internalType":"address"},{"name":"approved","type":"address","indexed":true,"internalType":"address"},{"name":"tokenId","type":"uint256","indexed":true,"internalType":"uint256"}],"anonymous":false},{"type":"event","name":"ApprovalForAll","inputs":[{"name":"owner","type":"address","indexed":true,"internalType":"address"},{"name":"operator","type":"address","indexed":true,"internalType":"address"},{"name":"approved","type":"bool","indexed":false,"internalType":"bool"}],"anonymous":false},{"type":"event","name":"Create","inputs":[{"name":"projectId","type":"uint256","indexed":true,"internalType":"uint256"},{"name":"owner","type":"address","indexed":true,"internalType":"address"},{"name":"caller","type":"address","indexed":false,"internalType":"address"}],"anonymous":false},{"type":"event","name":"DelegateChanged","inputs":[{"name":"delegator","type":"address","indexed":true,"internalType":"address"},{"name":"fromDelegate","type":"address","indexed":true,"internalType":"address"},{"name":"toDelegate","type":"address","indexed":true,"internalType":"address"}],"anonymous":false},{"type":"event","name":"DelegateVotesChanged","inputs":[{"name":"delegate","type":"address","indexed":true,"internalType":"address"},{"name":"previousVotes","type":"uint256","indexed":false,"internalType":"uint256"},{"name":"newVotes","type":"uint256","indexed":false,"internalType":"uint256"}],"anonymous":false},{"type":"event","name":"EIP712DomainChanged","inputs":[],"anonymous":false},{"type":"event","name":"OwnershipTransferred","inputs":[{"name":"previousOwner","type":"address","indexed":true,"internalType":"address"},{"name":"newOwner","type":"address","indexed":true,"internalType":"address"}],"anonymous":false},{"type":"event","name":"SetTokenUriResolver","inputs":[{"name":"resolver","type":"address","indexed":true,"internalType":"contract IJBTokenUriResolver"},{"name":"caller","type":"address","indexed":false,"internalType":"address"}],"anonymous":false},{"type":"event","name":"Transfer","inputs":[{"name":"from","type":"address","indexed":true,"internalType":"address"},{"name":"to","type":"address","indexed":true,"internalType":"address"},{"name":"tokenId","type":"uint256","indexed":true,"internalType":"uint256"}],"anonymous":false},{"type":"error","name":"CheckpointUnorderedInsertion","inputs":[]},{"type":"error","name":"ECDSAInvalidSignature","inputs":[]},{"type":"error","name":"ECDSAInvalidSignatureLength","inputs":[{"name":"length","type":"uint256","internalType":"uint256"}]},{"type":"error","name":"ECDSAInvalidSignatureS","inputs":[{"name":"s","type":"bytes32","internalType":"bytes32"}]},{"type":"error","name":"ERC5805FutureLookup","inputs":[{"name":"timepoint","type":"uint256","internalType":"uint256"},{"name":"clock","type":"uint48","internalType":"uint48"}]},{"type":"error","name":"ERC6372InconsistentClock","inputs":[]},{"type":"error","name":"ERC721IncorrectOwner","inputs":[{"name":"sender","type":"address","internalType":"address"},{"name":"tokenId","type":"uint256","internalType":"uint256"},{"name":"owner","type":"address","internalType":"address"}]},{"type":"error","name":"ERC721InsufficientApproval","inputs":[{"name":"operator","type":"address","internalType":"address"},{"name":"tokenId","type":"uint256","internalType":"uint256"}]},{"type":"error","name":"ERC721InvalidApprover","inputs":[{"name":"approver","type":"address","internalType":"address"}]},{"type":"error","name":"ERC721InvalidOperator","inputs":[{"name":"operator","type":"address","internalType":"address"}]},{"type":"error","name":"ERC721InvalidOwner","inputs":[{"name":"owner","type":"address","internalType":"address"}]},{"type":"error","name":"ERC721InvalidReceiver","inputs":[{"name":"receiver","type":"address","internalType":"address"}]},{"type":"error","name":"ERC721InvalidSender","inputs":[{"name":"sender","type":"address","internalType":"address"}]},{"type":"error","name":"ERC721NonexistentToken","inputs":[{"name":"tokenId","type":"uint256","internalType":"uint256"}]},{"type":"error","name":"InvalidAccountNonce","inputs":[{"name":"account","type":"address","internalType":"address"},{"name":"currentNonce","type":"uint256","internalType":"uint256"}]},{"type":"error","name":"InvalidShortString","inputs":[]},{"type":"error","name":"OwnableInvalidOwner","inputs":[{"name":"owner","type":"address","internalType":"address"}]},{"type":"error","name":"OwnableUnauthorizedAccount","inputs":[{"name":"account","type":"address","internalType":"address"}]},{"type":"error","name":"SafeCastOverflowedUintDowncast","inputs":[{"name":"bits","type":"uint8","internalType":"uint8"},{"name":"value","type":"uint256","internalType":"uint256"}]},{"type":"error","name":"StringTooLong","inputs":[{"name":"str","type":"string","internalType":"string"}]},{"type":"error","name":"VotesExpiredSignature","inputs":[{"name":"expiry","type":"uint256","internalType":"uint256"}]}],"bytecode":{"object":"0x6101606040526000600d553480156200001757600080fd5b5060405162002930380380620029308339810160408190526200003a91620002b5565b80604051806040016040528060118152602001704a75696365626f782050726f6a6563747360781b815250604051806040016040528060018152602001603160f81b815250604051806040016040528060118152602001704a75696365626f782050726f6a6563747360781b81525060405180604001604052806008815260200167094aa92868a849eb60c31b8152508160009081620000db91906200038e565b506001620000ea82826200038e565b50620000fc91508390506006620001e7565b610120526200010d816007620001e7565b61014052815160208084019190912060e052815190820120610100524660a0526200019b60e05161010051604080517f8b73c3c69bb8fe3d512ecc4cf759cc79239f7b179b0ffacaa9a75d522b39400f60208201529081019290925260608201524660808201523060a082015260009060c00160405160208183030381529060405280519060200120905090565b60805250503060c0526001600160a01b038116620001d457604051631e4fbdf760e01b8152600060048201526024015b60405180910390fd5b620001df8162000220565b5050620004d0565b60006020835110156200020757620001ff8362000272565b90506200021a565b816200021484826200038e565b5060ff90505b92915050565b600c80546001600160a01b038381166001600160a01b0319831681179093556040519116919082907f8be0079c531659141344cd1fd0a4f28419497f9722a3daafe3b4186f6b6457e090600090a35050565b600080829050601f81511115620002a0578260405163305a27a960e01b8152600401620001cb91906200045a565b8051620002ad82620004ab565b179392505050565b600060208284031215620002c857600080fd5b81516001600160a01b0381168114620002e057600080fd5b9392505050565b634e487b7160e01b600052604160045260246000fd5b600181811c908216806200031257607f821691505b6020821081036200033357634e487b7160e01b600052602260045260246000fd5b50919050565b601f82111562000389576000816000526020600020601f850160051c81016020861015620003645750805b601f850160051c820191505b81811015620003855782815560010162000370565b5050505b505050565b81516001600160401b03811115620003aa57620003aa620002e7565b620003c281620003bb8454620002fd565b8462000339565b602080601f831160018114620003fa5760008415620003e15750858301515b600019600386901b1c1916600185901b17855562000385565b600085815260208120601f198616915b828110156200042b578886015182559484019460019091019084016200040a565b50858210156200044a5787850151600019600388901b60f8161c191681555b5050505050600190811b01905550565b60006020808352835180602085015260005b818110156200048a578581018301518582016040015282016200046c565b506000604082860101526040601f19601f8301168501019250505092915050565b80516020808301519190811015620003335760001960209190910360031b1b16919050565b60805160a05160c05160e0516101005161012051610140516124056200052b6000396000610e0801526000610ddb015260006117c9015260006117a1015260006116fc015260006117260152600061175001526124056000f3fe608060405234801561001057600080fd5b50600436106101da5760003560e01c80637ecebe0011610104578063a22cb465116100a2578063c87b56dd11610071578063c87b56dd14610422578063e131fc0c14610435578063e985e9c514610448578063f2fde38b1461045b57600080fd5b8063a22cb465146103d6578063b88d4fde146103e9578063c0715888146103fc578063c3cda5201461040f57600080fd5b80638e539e8c116100de5780638e539e8c1461038957806391ddadf41461039c57806395d89b41146103bb5780639ab24eb0146103c357600080fd5b80637ecebe001461033457806384b0196e1461035d5780638da5cb5b1461037857600080fd5b80633a46b1a81161017c5780635c19a95c1161014b5780635c19a95c146102f35780636352211e1461030657806370a0823114610319578063715018a61461032c57600080fd5b80633a46b1a81461029957806342842e0e146102ac5780634bf5d7e9146102bf578063587cde1e146102c757600080fd5b8063081812fc116101b8578063081812fc14610233578063095ea7b31461025e57806323b872dd146102735780632407497e1461028657600080fd5b806301ffc9a7146101df57806306661abd1461020757806306fdde031461021e575b600080fd5b6101f26101ed366004611e1d565b61046e565b60405190151581526020015b60405180910390f35b610210600d5481565b6040519081526020016101fe565b610226610499565b6040516101fe9190611e8a565b610246610241366004611e9d565b61052b565b6040516001600160a01b0390911681526020016101fe565b61027161026c366004611ecb565b610554565b005b610271610281366004611ef7565b610563565b610271610294366004611f38565b6105f3565b6102106102a7366004611ecb565b610650565b6102716102ba366004611ef7565b6106d1565b6102266106f1565b6102466102d5366004611f38565b6001600160a01b039081166000908152600960205260409020541690565b610271610301366004611f38565b610769565b610246610314366004611e9d565b610774565b610210610327366004611f38565b61077f565b6102716107c7565b610210610342366004611f38565b6001600160a01b031660009081526008602052604090205490565b6103656107db565b6040516101fe9796959493929190611f55565b600c546001600160a01b0316610246565b610210610397366004611e9d565b610821565b6103a461088b565b60405165ffffffffffff90911681526020016101fe565b61022661089a565b6102106103d1366004611f38565b6108a9565b6102716103e4366004611fee565b6108d9565b6102716103f736600461209b565b6108e4565b61021061040a366004611f38565b6108fb565b61027161041d36600461214a565b61096a565b610226610430366004611e9d565b610a27565b600e54610246906001600160a01b031681565b6101f26104563660046121ac565b610ac5565b610271610469366004611f38565b610af3565b60006001600160e01b03198216630321f74760e01b1480610493575061049382610b31565b92915050565b6060600080546104a8906121da565b80601f01602080910402602001604051908101604052809291908181526020018280546104d4906121da565b80156105215780601f106104f657610100808354040283529160200191610521565b820191906000526020600020905b81548152906001019060200180831161050457829003601f168201915b5050505050905090565b600061053682610b81565b506000828152600460205260409020546001600160a01b0316610493565b61055f828233610bba565b5050565b6001600160a01b03821661059257604051633250574960e11b8152600060048201526024015b60405180910390fd5b600061059f838333610bc7565b9050836001600160a01b0316816001600160a01b0316146105ed576040516364283d7b60e01b81526001600160a01b0380861660048301526024820184905282166044820152606401610589565b50505050565b6105fb610beb565b600e80546001600160a01b0383166001600160a01b031990911681179091556040805133815290517fe7784d93cfbfa4408e19577e6cc0436f4dbb51214b70e100905dfce9def88c169181900360200190a250565b60008061065b61088b565b90508065ffffffffffff16831061069657604051637669fc0f60e11b81526004810184905265ffffffffffff82166024820152604401610589565b6106c06106a284610c18565b6001600160a01b0386166000908152600a6020526040902090610c4f565b6001600160d01b0316949350505050565b6106ec838383604051806020016040528060008152506108e4565b505050565b60606106fb610d05565b65ffffffffffff1661070b61088b565b65ffffffffffff1614610731576040516301bfc1c560e61b815260040160405180910390fd5b5060408051808201909152601d81527f6d6f64653d626c6f636b6e756d6265722666726f6d3d64656661756c74000000602082015290565b3361055f8183610d10565b600061049382610b81565b60006001600160a01b0382166107ab576040516322718ad960e21b815260006004820152602401610589565b506001600160a01b031660009081526003602052604090205490565b6107cf610beb565b6107d96000610d82565b565b6000606080600080600060606107ef610dd4565b6107f7610e01565b60408051600080825260208201909252600f60f81b9b939a50919850469750309650945092509050565b60008061082c61088b565b90508065ffffffffffff16831061086757604051637669fc0f60e11b81526004810184905265ffffffffffff82166024820152604401610589565b61087b61087384610c18565b600b90610c4f565b6001600160d01b03169392505050565b6000610895610d05565b905090565b6060600180546104a8906121da565b6001600160a01b0381166000908152600a602052604081206108ca90610e2e565b6001600160d01b031692915050565b61055f338383610e67565b6108ef848484610563565b6105ed84848484610f06565b6000600d6000815461090c9061222a565b9182905550905061091d828261102f565b6001600160a01b038216817f365b3162cd780731fc55a794b59494d472bc2af701007f581843a70673814698336040516001600160a01b03909116815260200160405180910390a3919050565b8342111561098e57604051632341d78760e11b815260048101859052602401610589565b604080517fe48329057bfd03d55e49b547132e39cffd9c1820ad7b9d4c5307691425d15adf60208201526001600160a01b038816918101919091526060810186905260808101859052600090610a0890610a009060a00160405160208183030381529060405280519060200120611049565b858585611076565b9050610a1481876110a4565b610a1e8188610d10565b50505050505050565b600e546060906001600160a01b031680610a51575050604080516020810190915260008152919050565b604051636d02a25560e11b8152600481018490526001600160a01b0382169063da0544aa90602401600060405180830381865afa158015610a96573d6000803e3d6000fd5b505050506040513d6000823e601f3d908101601f19168201604052610abe9190810190612243565b9392505050565b6001600160a01b03918216600090815260056020908152604080832093909416825291909152205460ff1690565b610afb610beb565b6001600160a01b038116610b2557604051631e4fbdf760e01b815260006004820152602401610589565b610b2e81610d82565b50565b60006001600160e01b031982166380ac58cd60e01b1480610b6257506001600160e01b03198216635b5e139f60e01b145b8061049357506301ffc9a760e01b6001600160e01b0319831614610493565b6000818152600260205260408120546001600160a01b03168061049357604051637e27328960e01b815260048101849052602401610589565b6106ec83838360016110f7565b600080610bd58585856111fd565b9050610be3818660016112f6565b949350505050565b600c546001600160a01b031633146107d95760405163118cdaa760e01b8152336004820152602401610589565b600065ffffffffffff821115610c4b576040516306dfcc6560e41b81526030600482015260248101839052604401610589565b5090565b815460009081816005811115610cae576000610c6a84611371565b610c7490856122ba565b60008881526020902090915081015465ffffffffffff9081169087161015610c9e57809150610cac565b610ca98160016122cd565b92505b505b6000610cbc87878585611459565b90508015610cf757610ce187610cd36001846122ba565b600091825260209091200190565b54600160301b90046001600160d01b0316610cfa565b60005b979650505050505050565b600061089543610c18565b6001600160a01b0382811660008181526009602052604080822080548686166001600160a01b0319821681179092559151919094169392849290917f3134e8a2e6d97e929a7e54011ea5485d7d196dd5f0ba4d4ef95803e8e3fc257f9190a46106ec8183610d7d866114bb565b6114c6565b600c80546001600160a01b038381166001600160a01b0319831681179093556040519116919082907f8be0079c531659141344cd1fd0a4f28419497f9722a3daafe3b4186f6b6457e090600090a35050565b60606108957f0000000000000000000000000000000000000000000000000000000000000000600661162d565b60606108957f0000000000000000000000000000000000000000000000000000000000000000600761162d565b80546000908015610e5e57610e4883610cd36001846122ba565b54600160301b90046001600160d01b0316610abe565b60009392505050565b6001600160a01b038216610e9957604051630b61174360e31b81526001600160a01b0383166004820152602401610589565b6001600160a01b03838116600081815260056020908152604080832094871680845294825291829020805460ff191686151590811790915591519182527f17307eab39ab6107e8899845ad3d59bd9653f200f220920489ca2b5937696c31910160405180910390a3505050565b6001600160a01b0383163b156105ed57604051630a85bd0160e11b81526001600160a01b0384169063150b7a0290610f489033908890879087906004016122e0565b6020604051808303816000875af1925050508015610f83575060408051601f3d908101601f19168201909252610f809181019061231d565b60015b610fec573d808015610fb1576040519150601f19603f3d011682016040523d82523d6000602084013e610fb6565b606091505b508051600003610fe457604051633250574960e11b81526001600160a01b0385166004820152602401610589565b805181602001fd5b6001600160e01b03198116630a85bd0160e11b1461102857604051633250574960e11b81526001600160a01b0385166004820152602401610589565b5050505050565b61055f8282604051806020016040528060008152506116d8565b60006104936110566116ef565b8360405161190160f01b8152600281019290925260228201526042902090565b6000806000806110888888888861181a565b92509250925061109882826118e9565b50909695505050505050565b6001600160a01b03821660009081526008602052604090208054600181019091558181146106ec576040516301d4b62360e61b81526001600160a01b038416600482015260248101829052604401610589565b808061110b57506001600160a01b03821615155b156111cd57600061111b84610b81565b90506001600160a01b038316158015906111475750826001600160a01b0316816001600160a01b031614155b801561115a57506111588184610ac5565b155b156111835760405163a9fbf51f60e01b81526001600160a01b0384166004820152602401610589565b81156111cb5783856001600160a01b0316826001600160a01b03167f8c5be1e5ebec7d5bd14f71427d1e84f3dd0314c0f7b2291e5b200ac8c7c3b92560405160405180910390a45b505b5050600090815260046020526040902080546001600160a01b0319166001600160a01b0392909216919091179055565b6000828152600260205260408120546001600160a01b039081169083161561122a5761122a8184866119a2565b6001600160a01b03811615611268576112476000856000806110f7565b6001600160a01b038116600090815260036020526040902080546000190190555b6001600160a01b03851615611297576001600160a01b0385166000908152600360205260409020805460010190555b60008481526002602052604080822080546001600160a01b0319166001600160a01b0389811691821790925591518793918516917fddf252ad1be2c89b69c2b068fc378daa952ba7f163c4a11628f55a4df523b3ef91a4949350505050565b6001600160a01b03831661131d5761131a600b611a0661131584611a12565b611a46565b50505b6001600160a01b03821661133f5761133c600b611a7f61131584611a12565b50505b6001600160a01b038381166000908152600960205260408082205485841683529120546106ec929182169116836114c6565b60008160000361138357506000919050565b6000600161139084611a8b565b901c6001901b905060018184816113a9576113a961233a565b048201901c905060018184816113c1576113c161233a565b048201901c905060018184816113d9576113d961233a565b048201901c905060018184816113f1576113f161233a565b048201901c905060018184816114095761140961233a565b048201901c905060018184816114215761142161233a565b048201901c905060018184816114395761143961233a565b048201901c9050610abe818285816114535761145361233a565b04611b1f565b60005b818310156114b35760006114708484611b35565b60008781526020902090915065ffffffffffff86169082015465ffffffffffff16111561149f578092506114ad565b6114aa8160016122cd565b93505b5061145c565b509392505050565b60006104938261077f565b816001600160a01b0316836001600160a01b0316141580156114e85750600081115b156106ec576001600160a01b0383161561158b576001600160a01b0383166000908152600a60205260408120819061152690611a7f61131586611a12565b6001600160d01b031691506001600160d01b03169150846001600160a01b03167fdec2bacdd2f05b59de34da9b523dff8be42e5e38e818c82fdb0bae774387a7248383604051611580929190918252602082015260400190565b60405180910390a250505b6001600160a01b038216156106ec576001600160a01b0382166000908152600a6020526040812081906115c490611a0661131586611a12565b6001600160d01b031691506001600160d01b03169150836001600160a01b03167fdec2bacdd2f05b59de34da9b523dff8be42e5e38e818c82fdb0bae774387a724838360405161161e929190918252602082015260400190565b60405180910390a25050505050565b606060ff83146116475761164083611b50565b9050610493565b818054611653906121da565b80601f016020809104026020016040519081016040528092919081815260200182805461167f906121da565b80156116cc5780601f106116a1576101008083540402835291602001916116cc565b820191906000526020600020905b8154815290600101906020018083116116af57829003601f168201915b50505050509050610493565b6116e28383611b8f565b6106ec6000848484610f06565b6000306001600160a01b037f00000000000000000000000000000000000000000000000000000000000000001614801561174857507f000000000000000000000000000000000000000000000000000000000000000046145b1561177257507f000000000000000000000000000000000000000000000000000000000000000090565b610895604080517f8b73c3c69bb8fe3d512ecc4cf759cc79239f7b179b0ffacaa9a75d522b39400f60208201527f0000000000000000000000000000000000000000000000000000000000000000918101919091527f000000000000000000000000000000000000000000000000000000000000000060608201524660808201523060a082015260009060c00160405160208183030381529060405280519060200120905090565b600080807f7fffffffffffffffffffffffffffffff5d576e7357a4501ddfe92f46681b20a084111561185557506000915060039050826118df565b604080516000808252602082018084528a905260ff891692820192909252606081018790526080810186905260019060a0016020604051602081039080840390855afa1580156118a9573d6000803e3d6000fd5b5050604051601f1901519150506001600160a01b0381166118d5575060009250600191508290506118df565b9250600091508190505b9450945094915050565b60008260038111156118fd576118fd612350565b03611906575050565b600182600381111561191a5761191a612350565b036119385760405163f645eedf60e01b815260040160405180910390fd5b600282600381111561194c5761194c612350565b0361196d5760405163fce698f760e01b815260048101829052602401610589565b600382600381111561198157611981612350565b0361055f576040516335e2f38360e21b815260048101829052602401610589565b6119ad838383611bf4565b6106ec576001600160a01b0383166119db57604051637e27328960e01b815260048101829052602401610589565b60405163177e802f60e01b81526001600160a01b038316600482015260248101829052604401610589565b6000610abe8284612366565b60006001600160d01b03821115610c4b576040516306dfcc6560e41b815260d0600482015260248101839052604401610589565b600080611a72611a5461088b565b611a6a611a6088610e2e565b868863ffffffff16565b879190611c57565b915091505b935093915050565b6000610abe828461238d565b600080608083901c15611aa057608092831c92015b604083901c15611ab257604092831c92015b602083901c15611ac457602092831c92015b601083901c15611ad657601092831c92015b600883901c15611ae857600892831c92015b600483901c15611afa57600492831c92015b600283901c15611b0c57600292831c92015b600183901c156104935760010192915050565b6000818310611b2e5781610abe565b5090919050565b6000611b4460028484186123ad565b610abe908484166122cd565b60606000611b5d83611c65565b604080516020808252818301909252919250600091906020820181803683375050509182525060208101929092525090565b6001600160a01b038216611bb957604051633250574960e11b815260006004820152602401610589565b6000611bc783836000610bc7565b90506001600160a01b038116156106ec576040516339e3563760e11b815260006004820152602401610589565b60006001600160a01b03831615801590610be35750826001600160a01b0316846001600160a01b03161480611c2e5750611c2e8484610ac5565b80610be35750506000908152600460205260409020546001600160a01b03908116911614919050565b600080611a72858585611c8d565b600060ff8216601f81111561049357604051632cd44ac360e21b815260040160405180910390fd5b825460009081908015611dac576000611cab87610cd36001856122ba565b60408051808201909152905465ffffffffffff808216808452600160301b9092046001600160d01b031660208401529192509087161015611cff57604051632520601d60e01b815260040160405180910390fd5b805165ffffffffffff808816911603611d4b5784611d2288610cd36001866122ba565b80546001600160d01b0392909216600160301b0265ffffffffffff909216919091179055611d9c565b6040805180820190915265ffffffffffff80881682526001600160d01b0380881660208085019182528b54600181018d5560008d81529190912094519151909216600160301b029216919091179101555b602001519250839150611a779050565b50506040805180820190915265ffffffffffff80851682526001600160d01b0380851660208085019182528854600181018a5560008a815291822095519251909316600160301b029190931617920191909155905081611a77565b6001600160e01b031981168114610b2e57600080fd5b600060208284031215611e2f57600080fd5b8135610abe81611e07565b60005b83811015611e55578181015183820152602001611e3d565b50506000910152565b60008151808452611e76816020860160208601611e3a565b601f01601f19169290920160200192915050565b602081526000610abe6020830184611e5e565b600060208284031215611eaf57600080fd5b5035919050565b6001600160a01b0381168114610b2e57600080fd5b60008060408385031215611ede57600080fd5b8235611ee981611eb6565b946020939093013593505050565b600080600060608486031215611f0c57600080fd5b8335611f1781611eb6565b92506020840135611f2781611eb6565b929592945050506040919091013590565b600060208284031215611f4a57600080fd5b8135610abe81611eb6565b60ff60f81b881681526000602060e06020840152611f7660e084018a611e5e565b8381036040850152611f88818a611e5e565b606085018990526001600160a01b038816608086015260a0850187905284810360c08601528551808252602080880193509091019060005b81811015611fdc57835183529284019291840191600101611fc0565b50909c9b505050505050505050505050565b6000806040838503121561200157600080fd5b823561200c81611eb6565b91506020830135801515811461202157600080fd5b809150509250929050565b634e487b7160e01b600052604160045260246000fd5b604051601f8201601f1916810167ffffffffffffffff8111828210171561206b5761206b61202c565b604052919050565b600067ffffffffffffffff82111561208d5761208d61202c565b50601f01601f191660200190565b600080600080608085870312156120b157600080fd5b84356120bc81611eb6565b935060208501356120cc81611eb6565b925060408501359150606085013567ffffffffffffffff8111156120ef57600080fd5b8501601f8101871361210057600080fd5b803561211361210e82612073565b612042565b81815288602083850101111561212857600080fd5b8160208401602083013760006020838301015280935050505092959194509250565b60008060008060008060c0878903121561216357600080fd5b863561216e81611eb6565b95506020870135945060408701359350606087013560ff8116811461219257600080fd5b9598949750929560808101359460a0909101359350915050565b600080604083850312156121bf57600080fd5b82356121ca81611eb6565b9150602083013561202181611eb6565b600181811c908216806121ee57607f821691505b60208210810361220e57634e487b7160e01b600052602260045260246000fd5b50919050565b634e487b7160e01b600052601160045260246000fd5b60006001820161223c5761223c612214565b5060010190565b60006020828403121561225557600080fd5b815167ffffffffffffffff81111561226c57600080fd5b8201601f8101841361227d57600080fd5b805161228b61210e82612073565b8181528560208385010111156122a057600080fd5b6122b1826020830160208601611e3a565b95945050505050565b8181038181111561049357610493612214565b8082018082111561049357610493612214565b6001600160a01b038581168252841660208201526040810183905260806060820181905260009061231390830184611e5e565b9695505050505050565b60006020828403121561232f57600080fd5b8151610abe81611e07565b634e487b7160e01b600052601260045260246000fd5b634e487b7160e01b600052602160045260246000fd5b6001600160d01b0381811683821601908082111561238657612386612214565b5092915050565b6001600160d01b0382811682821603908082111561238657612386612214565b6000826123ca57634e487b7160e01b600052601260045260246000fd5b50049056fea26469706673582212201c7224cb122fada83c33379ee36e99c5175742979450b17983f18c6f4de0f05864736f6c63430008170033","linkReferences":{}},"methodIdentifiers":{"CLOCK_MODE()":"4bf5d7e9","approve(address,uint256)":"095ea7b3","balanceOf(address)":"70a08231","clock()":"91ddadf4","count()":"06661abd","createFor(address)":"c0715888","delegate(address)":"5c19a95c","delegateBySig(address,uint256,uint256,uint8,bytes32,bytes32)":"c3cda520","delegates(address)":"587cde1e","eip712Domain()":"84b0196e","getApproved(uint256)":"081812fc","getPastTotalSupply(uint256)":"8e539e8c","getPastVotes(address,uint256)":"3a46b1a8","getVotes(address)":"9ab24eb0","isApprovedForAll(address,address)":"e985e9c5","name()":"06fdde03","nonces(address)":"7ecebe00","owner()":"8da5cb5b","ownerOf(uint256)":"6352211e","renounceOwnership()":"715018a6","safeTransferFrom(address,address,uint256)":"42842e0e","safeTransferFrom(address,address,uint256,bytes)":"b88d4fde","setApprovalForAll(address,bool)":"a22cb465","setTokenUriResolver(address)":"2407497e","supportsInterface(bytes4)":"01ffc9a7","symbol()":"95d89b41","tokenURI(uint256)":"c87b56dd","tokenUriResolver()":"e131fc0c","transferFrom(address,address,uint256)":"23b872dd","transferOwnership(address)":"f2fde38b"},"id":27}