{"abi":[{"type":"constructor","inputs":[{"name":"owner","type":"address","internalType":"address"}],"stateMutability":"nonpayable"},{"type":"function","name":"CLOCK_MODE","inputs":[],"outputs":[{"name":"","type":"string","internalType":"string"}],"stateMutability":"view"},{"type":"function","name":"approve","inputs":[{"name":"to","type":"address","internalType":"address"},{"name":"tokenId","type":"uint256","internalType":"uint256"}],"outputs":[],"stateMutability":"nonpayable"},{"type":"function","name":"balanceOf","inputs":[{"name":"owner","type":"address","internalType":"address"}],"outputs":[{"name":"","type":"uint256","internalType":"uint256"}],"stateMutability":"view"},{"type":"function","name":"clock","inputs":[],"outputs":[{"name":"","type":"uint48","internalType":"uint48"}],"stateMutability":"view"},{"type":"function","name":"count","inputs":[],"outputs":[{"name":"","type":"uint256","internalType":"uint256"}],"stateMutability":"view"},{"type":"function","name":"createFor","inputs":[{"name":"owner","type":"address","internalType":"address"}],"outputs":[{"name":"projectId","type":"uint256","internalType":"uint256"}],"stateMutability":"nonpayable"},{"type":"function","name":"delegate","inputs":[{"name":"delegatee","type":"address","internalType":"address"}],"outputs":[],"stateMutability":"nonpayable"},{"type":"function","name":"delegateBySig","inputs":[{"name":"delegatee","type":"address","internalType":"address"},{"name":"nonce","type":"uint256","internalType":"uint256"},{"name":"expiry","type":"uint256","internalType":"uint256"},{"name":"v","type":"uint8","internalType":"uint8"},{"name":"r","type":"bytes32","internalType":"bytes32"},{"name":"s","type":"bytes32","internalType":"bytes32"}],"outputs":[],"stateMutability":"nonpayable"},{"type":"function","name":"delegates","inputs":[{"name":"account","type":"address","internalType":"address"}],"outputs":[{"name":"","type":"address","internalType":"address"}],"stateMutability":"view"},{"type":"function","name":"eip712Domain","inputs":[],"outputs":[{"name":"fields","type":"bytes1","internalType":"bytes1"},{"name":"name","type":"string","internalType":"string"},{"name":"version","type":"string","internalType":"string"},{"name":"chainId","type":"uint256","internalType":"uint256"},{"name":"verifyingContract","type":"address","internalType":"address"},{"name":"salt","type":"bytes32","internalType":"bytes32"},{"name":"extensions","type":"uint256[]","internalType":"uint256[]"}],"stateMutability":"view"},{"type":"function","name":"getApproved","inputs":[{"name":"tokenId","type":"uint256","internalType":"uint256"}],"outputs":[{"name":"","type":"address","internalType":"address"}],"stateMutability":"view"},{"type":"function","name":"getPastTotalSupply","inputs":[{"name":"timepoint","type":"uint256","internalType":"uint256"}],"outputs":[{"name":"","type":"uint256","internalType":"uint256"}],"stateMutability":"view"},{"type":"function","name":"getPastVotes","inputs":[{"name":"account","type":"address","internalType":"address"},{"name":"timepoint","type":"uint256","internalType":"uint256"}],"outputs":[{"name":"","type":"uint256","internalType":"uint256"}],"stateMutability":"view"},{"type":"function","name":"getVotes","inputs":[{"name":"account","type":"address","internalType":"address"}],"outputs":[{"name":"","type":"uint256","internalType":"uint256"}],"stateMutability":"view"},{"type":"function","name":"isApprovedForAll","inputs":[{"name":"owner","type":"address","internalType":"address"},{"name":"operator","type":"address","internalType":"address"}],"outputs":[{"name":"","type":"bool","internalType":"bool"}],"stateMutability":"view"},{"type":"function","name":"name","inputs":[],"outputs":[{"name":"","type":"string","internalType":"string"}],"stateMutability":"view"},{"type":"function","name":"nonces","inputs":[{"name":"owner","type":"address","internalType":"address"}],"outputs":[{"name":"","type":"uint256","internalType":"uint256"}],"stateMutability":"view"},{"type":"function","name":"owner","inputs":[],"outputs":[{"name":"","type":"address","internalType":"address"}],"stateMutability":"view"},{"type":"function","name":"ownerOf","inputs":[{"name":"tokenId","type":"uint256","internalType":"uint256"}],"outputs":[{"name":"","type":"address","internalType":"address"}],"stateMutability":"view"},{"type":"function","name":"renounceOwnership","inputs":[],"outputs":[],"stateMutability":"nonpayable"},{"type":"function","name":"safeTransferFrom","inputs":[{"name":"from","type":"address","internalType":"address"},{"name":"to","type":"address","internalType":"address"},{"name":"tokenId","type":"uint256","internalType":"uint256"}],"outputs":[],"stateMutability":"nonpayable"},{"type":"function","name":"safeTransferFrom","inputs":[{"name":"from","type":"address","internalType":"address"},{"name":"to","type":"address","internalType":"address"},{"name":"tokenId","type":"uint256","internalType":"uint256"},{"name":"data","type":"bytes","internalType":"bytes"}],"outputs":[],"stateMutability":"nonpayable"},{"type":"function","name":"setApprovalForAll","inputs":[{"name":"operator","type":"address","internalType":"address"},{"name":"approved","type":"bool","internalType":"bool"}],"outputs":[],"stateMutability":"nonpayable"},{"type":"function","name":"setTokenUriResolver","inputs":[{"name":"newResolver","type":"address","internalType":"contract IJBTokenUriResolver"}],"outputs":[],"stateMutability":"nonpayable"},{"type":"function","name":"supportsInterface","inputs":[{"name":"interfaceId","type":"bytes4","internalType":"bytes4"}],"outputs":[{"name":"","type":"bool","internalType":"bool"}],"stateMutability":"view"},{"type":"function","name":"symbol","inputs":[],"outputs":[{"name":"","type":"string","internalType":"string"}],"stateMutability":"view"},{"type":"function","name":"tokenURI","inputs":[{"name":"projectId","type":"uint256","internalType":"uint256"}],"outputs":[{"name":"","type":"string","internalType":"string"}],"stateMutability":"view"},{"type":"function","name":"tokenUriResolver","inputs":[],"outputs":[{"name":"","type":"address","internalType":"contract IJBTokenUriResolver"}],"stateMutability":"view"},{"type":"function","name":"transferFrom","inputs":[{"name":"from","type":"address","internalType":"address"},{"name":"to","type":"address","internalType":"address"},{"name":"tokenId","type":"uint256","internalType":"uint256"}],"outputs":[],"stateMutability":"nonpayable"},{"type":"function","name":"transferOwnership","inputs":[{"name":"newOwner","type":"address","internalType":"address"}],"outputs":[],"stateMutability":"nonpayable"},{"type":"event","name":"Approval","inputs":[{"name":"owner","type":"address","indexed":true,"internalType":"address"},{"name":"approved","type":"address","indexed":true,"internalType":"address"},{"name":"tokenId","type":"uint256","indexed":true,"internalType":"uint256"}],"anonymous":false},{"type":"event","name":"ApprovalForAll","inputs":[{"name":"owner","type":"address","indexed":true,"internalType":"address"},{"name":"operator","type":"address","indexed":true,"internalType":"address"},{"name":"approved","type":"bool","indexed":false,"internalType":"bool"}],"anonymous":false},{"type":"event","name":"Create","inputs":[{"name":"projectId","type":"uint256","indexed":true,"internalType":"uint256"},{"name":"owner","type":"address","indexed":true,"internalType":"address"},{"name":"caller","type":"address","indexed":false,"internalType":"address"}],"anonymous":false},{"type":"event","name":"DelegateChanged","inputs":[{"name":"delegator","type":"address","indexed":true,"internalType":"address"},{"name":"fromDelegate","type":"address","indexed":true,"internalType":"address"},{"name":"toDelegate","type":"address","indexed":true,"internalType":"address"}],"anonymous":false},{"type":"event","name":"DelegateVotesChanged","inputs":[{"name":"delegate","type":"address","indexed":true,"internalType":"address"},{"name":"previousVotes","type":"uint256","indexed":false,"internalType":"uint256"},{"name":"newVotes","type":"uint256","indexed":false,"internalType":"uint256"}],"anonymous":false},{"type":"event","name":"EIP712DomainChanged","inputs":[],"anonymous":false},{"type":"event","name":"OwnershipTransferred","inputs":[{"name":"previousOwner","type":"address","indexed":true,"internalType":"address"},{"name":"newOwner","type":"address","indexed":true,"internalType":"address"}],"anonymous":false},{"type":"event","name":"SetTokenUriResolver","inputs":[{"name":"resolver","type":"address","indexed":true,"internalType":"contract IJBTokenUriResolver"},{"name":"caller","type":"address","indexed":false,"internalType":"address"}],"anonymous":false},{"type":"event","name":"Transfer","inputs":[{"name":"from","type":"address","indexed":true,"internalType":"address"},{"name":"to","type":"address","indexed":true,"internalType":"address"},{"name":"tokenId","type":"uint256","indexed":true,"internalType":"uint256"}],"anonymous":false},{"type":"error","name":"CheckpointUnorderedInsertion","inputs":[]},{"type":"error","name":"ECDSAInvalidSignature","inputs":[]},{"type":"error","name":"ECDSAInvalidSignatureLength","inputs":[{"name":"length","type":"uint256","internalType":"uint256"}]},{"type":"error","name":"ECDSAInvalidSignatureS","inputs":[{"name":"s","type":"bytes32","internalType":"bytes32"}]},{"type":"error","name":"ERC5805FutureLookup","inputs":[{"name":"timepoint","type":"uint256","internalType":"uint256"},{"name":"clock","type":"uint48","internalType":"uint48"}]},{"type":"error","name":"ERC6372InconsistentClock","inputs":[]},{"type":"error","name":"ERC721IncorrectOwner","inputs":[{"name":"sender","type":"address","internalType":"address"},{"name":"tokenId","type":"uint256","internalType":"uint256"},{"name":"owner","type":"address","internalType":"address"}]},{"type":"error","name":"ERC721InsufficientApproval","inputs":[{"name":"operator","type":"address","internalType":"address"},{"name":"tokenId","type":"uint256","internalType":"uint256"}]},{"type":"error","name":"ERC721InvalidApprover","inputs":[{"name":"approver","type":"address","internalType":"address"}]},{"type":"error","name":"ERC721InvalidOperator","inputs":[{"name":"operator","type":"address","internalType":"address"}]},{"type":"error","name":"ERC721InvalidOwner","inputs":[{"name":"owner","type":"address","internalType":"address"}]},{"type":"error","name":"ERC721InvalidReceiver","inputs":[{"name":"receiver","type":"address","internalType":"address"}]},{"type":"error","name":"ERC721InvalidSender","inputs":[{"name":"sender","type":"address","internalType":"address"}]},{"type":"error","name":"ERC721NonexistentToken","inputs":[{"name":"tokenId","type":"uint256","internalType":"uint256"}]},{"type":"error","name":"InvalidAccountNonce","inputs":[{"name":"account","type":"address","internalType":"address"},{"name":"currentNonce","type":"uint256","internalType":"uint256"}]},{"type":"error","name":"InvalidShortString","inputs":[]},{"type":"error","name":"OwnableInvalidOwner","inputs":[{"name":"owner","type":"address","internalType":"address"}]},{"type":"error","name":"OwnableUnauthorizedAccount","inputs":[{"name":"account","type":"address","internalType":"address"}]},{"type":"error","name":"SafeCastOverflowedUintDowncast","inputs":[{"name":"bits","type":"uint8","internalType":"uint8"},{"name":"value","type":"uint256","internalType":"uint256"}]},{"type":"error","name":"StringTooLong","inputs":[{"name":"str","type":"string","internalType":"string"}]},{"type":"error","name":"VotesExpiredSignature","inputs":[{"name":"expiry","type":"uint256","internalType":"uint256"}]}],"bytecode":{"object":"0x6101606040526000600d553480156200001757600080fd5b5060405162003488380380620034888339810160408190526200003a91620002b5565b80604051806040016040528060118152602001704a75696365626f782050726f6a6563747360781b815250604051806040016040528060018152602001603160f81b815250604051806040016040528060118152602001704a75696365626f782050726f6a6563747360781b81525060405180604001604052806008815260200167094aa92868a849eb60c31b8152508160009081620000db91906200038e565b506001620000ea82826200038e565b50620000fc91508390506006620001e7565b610120526200010d816007620001e7565b61014052815160208084019190912060e052815190820120610100524660a0526200019b60e05161010051604080517f8b73c3c69bb8fe3d512ecc4cf759cc79239f7b179b0ffacaa9a75d522b39400f60208201529081019290925260608201524660808201523060a082015260009060c00160405160208183030381529060405280519060200120905090565b60805250503060c0526001600160a01b038116620001d457604051631e4fbdf760e01b8152600060048201526024015b60405180910390fd5b620001df8162000220565b5050620004d0565b60006020835110156200020757620001ff8362000272565b90506200021a565b816200021484826200038e565b5060ff90505b92915050565b600c80546001600160a01b038381166001600160a01b0319831681179093556040519116919082907f8be0079c531659141344cd1fd0a4f28419497f9722a3daafe3b4186f6b6457e090600090a35050565b600080829050601f81511115620002a0578260405163305a27a960e01b8152600401620001cb91906200045a565b8051620002ad82620004ab565b179392505050565b600060208284031215620002c857600080fd5b81516001600160a01b0381168114620002e057600080fd5b9392505050565b634e487b7160e01b600052604160045260246000fd5b600181811c908216806200031257607f821691505b6020821081036200033357634e487b7160e01b600052602260045260246000fd5b50919050565b601f82111562000389576000816000526020600020601f850160051c81016020861015620003645750805b601f850160051c820191505b81811015620003855782815560010162000370565b5050505b505050565b81516001600160401b03811115620003aa57620003aa620002e7565b620003c281620003bb8454620002fd565b8462000339565b602080601f831160018114620003fa5760008415620003e15750858301515b600019600386901b1c1916600185901b17855562000385565b600085815260208120601f198616915b828110156200042b578886015182559484019460019091019084016200040a565b50858210156200044a5787850151600019600388901b60f8161c191681555b5050505050600190811b01905550565b60006020808352835180602085015260005b818110156200048a578581018301518582016040015282016200046c565b506000604082860101526040601f19601f8301168501019250505092915050565b80516020808301519190811015620003335760001960209190910360031b1b16919050565b60805160a05160c05160e051610100516101205161014051612f5d6200052b6000396000611217015260006111ea0152600061201001526000611fe801526000611f4301526000611f6d01526000611f970152612f5d6000f3fe608060405234801561001057600080fd5b50600436106101da5760003560e01c80637ecebe0011610104578063a22cb465116100a2578063c87b56dd11610071578063c87b56dd14610456578063e131fc0c14610469578063e985e9c514610489578063f2fde38b146104d257600080fd5b8063a22cb4651461040a578063b88d4fde1461041d578063c071588814610430578063c3cda5201461044357600080fd5b80638e539e8c116100de5780638e539e8c146103bd57806391ddadf4146103d057806395d89b41146103ef5780639ab24eb0146103f757600080fd5b80637ecebe001461034e57806384b0196e146103845780638da5cb5b1461039f57600080fd5b80633a46b1a81161017c5780635c19a95c1161014b5780635c19a95c1461030d5780636352211e1461032057806370a0823114610333578063715018a61461034657600080fd5b80633a46b1a8146102a657806342842e0e146102b95780634bf5d7e9146102cc578063587cde1e146102d457600080fd5b8063081812fc116101b8578063081812fc14610233578063095ea7b31461026b57806323b872dd146102805780632407497e1461029357600080fd5b806301ffc9a7146101df57806306661abd1461020757806306fdde031461021e575b600080fd5b6101f26101ed3660046127fe565b6104e5565b60405190151581526020015b60405180910390f35b610210600d5481565b6040519081526020016101fe565b610226610541565b6040516101fe9190612889565b61024661024136600461289c565b6105d3565b60405173ffffffffffffffffffffffffffffffffffffffff90911681526020016101fe565b61027e6102793660046128d7565b610609565b005b61027e61028e366004612903565b610618565b61027e6102a1366004612944565b61070e565b6102106102b43660046128d7565b610790565b61027e6102c7366004612903565b61084a565b61022661086a565b6102466102e2366004612944565b73ffffffffffffffffffffffffffffffffffffffff9081166000908152600960205260409020541690565b61027e61031b366004612944565b6108fb565b61024661032e36600461289c565b610906565b610210610341366004612944565b610911565b61027e61098c565b61021061035c366004612944565b73ffffffffffffffffffffffffffffffffffffffff1660009081526008602052604090205490565b61038c6109a0565b6040516101fe9796959493929190612961565b600c5473ffffffffffffffffffffffffffffffffffffffff16610246565b6102106103cb36600461289c565b610a02565b6103d8610a98565b60405165ffffffffffff90911681526020016101fe565b610226610aa7565b610210610405366004612944565b610ab6565b61027e610418366004612a23565b610b06565b61027e61042b366004612b25565b610b11565b61021061043e366004612944565b610b29565b61027e610451366004612bd4565b610bb2565b61022661046436600461289c565b610c95565b600e546102469073ffffffffffffffffffffffffffffffffffffffff1681565b6101f2610497366004612c36565b73ffffffffffffffffffffffffffffffffffffffff918216600090815260056020908152604080832093909416825291909152205460ff1690565b61027e6104e0366004612944565b610d84565b60007fffffffff0000000000000000000000000000000000000000000000000000000082167f0321f74700000000000000000000000000000000000000000000000000000000148061053b575061053b82610de8565b92915050565b60606000805461055090612c64565b80601f016020809104026020016040519081016040528092919081815260200182805461057c90612c64565b80156105c95780601f1061059e576101008083540402835291602001916105c9565b820191906000526020600020905b8154815290600101906020018083116105ac57829003601f168201915b5050505050905090565b60006105de82610ecb565b5060008281526004602052604090205473ffffffffffffffffffffffffffffffffffffffff1661053b565b610614828233610f2a565b5050565b73ffffffffffffffffffffffffffffffffffffffff821661066d576040517f64a0ae92000000000000000000000000000000000000000000000000000000008152600060048201526024015b60405180910390fd5b600061067a838333610f37565b90508373ffffffffffffffffffffffffffffffffffffffff168173ffffffffffffffffffffffffffffffffffffffff1614610708576040517f64283d7b00000000000000000000000000000000000000000000000000000000815273ffffffffffffffffffffffffffffffffffffffff80861660048301526024820184905282166044820152606401610664565b50505050565b610716610f5b565b600e805473ffffffffffffffffffffffffffffffffffffffff83167fffffffffffffffffffffffff000000000000000000000000000000000000000090911681179091556040805133815290517fe7784d93cfbfa4408e19577e6cc0436f4dbb51214b70e100905dfce9def88c169181900360200190a250565b60008061079b610a98565b90508065ffffffffffff1683106107ef576040517fecd3f81e0000000000000000000000000000000000000000000000000000000081526004810184905265ffffffffffff82166024820152604401610664565b6108266107fb84610fae565b73ffffffffffffffffffffffffffffffffffffffff86166000908152600a6020526040902090610ffe565b79ffffffffffffffffffffffffffffffffffffffffffffffffffff16949350505050565b61086583838360405180602001604052806000815250610b11565b505050565b60606108746110ca565b65ffffffffffff16610884610a98565b65ffffffffffff16146108c3576040517f6ff0714000000000000000000000000000000000000000000000000000000000815260040160405180910390fd5b5060408051808201909152601d81527f6d6f64653d626c6f636b6e756d6265722666726f6d3d64656661756c74000000602082015290565b3361061481836110d5565b600061053b82610ecb565b600073ffffffffffffffffffffffffffffffffffffffff8216610963576040517f89c62b6400000000000000000000000000000000000000000000000000000000815260006004820152602401610664565b5073ffffffffffffffffffffffffffffffffffffffff1660009081526003602052604090205490565b610994610f5b565b61099e600061116c565b565b6000606080600080600060606109b46111e3565b6109bc611210565b604080516000808252602082019092527f0f000000000000000000000000000000000000000000000000000000000000009b939a50919850469750309650945092509050565b600080610a0d610a98565b90508065ffffffffffff168310610a61576040517fecd3f81e0000000000000000000000000000000000000000000000000000000081526004810184905265ffffffffffff82166024820152604401610664565b610a75610a6d84610fae565b600b90610ffe565b79ffffffffffffffffffffffffffffffffffffffffffffffffffff169392505050565b6000610aa26110ca565b905090565b60606001805461055090612c64565b73ffffffffffffffffffffffffffffffffffffffff81166000908152600a60205260408120610ae49061123d565b79ffffffffffffffffffffffffffffffffffffffffffffffffffff1692915050565b61061433838361128c565b610b1c848484610618565b6107083385858585611389565b6000600d60008154610b3a90612ce6565b91829055509050610b4b8282611582565b73ffffffffffffffffffffffffffffffffffffffff8216817f365b3162cd780731fc55a794b59494d472bc2af701007f581843a706738146983360405173ffffffffffffffffffffffffffffffffffffffff909116815260200160405180910390a3919050565b83421115610bef576040517f4683af0e00000000000000000000000000000000000000000000000000000000815260048101859052602401610664565b604080517fe48329057bfd03d55e49b547132e39cffd9c1820ad7b9d4c5307691425d15adf602082015273ffffffffffffffffffffffffffffffffffffffff8816918101919091526060810186905260808101859052600090610c7690610c6e9060a0016040516020818303038152906040528051906020012061159c565b8585856115e4565b9050610c828187611612565b610c8c81886110d5565b50505050505050565b600e5460609073ffffffffffffffffffffffffffffffffffffffff1680610ccc575050604080516020810190915260008152919050565b6040517fda0544aa0000000000000000000000000000000000000000000000000000000081526004810184905273ffffffffffffffffffffffffffffffffffffffff82169063da0544aa90602401600060405180830381865afa158015610d37573d6000803e3d6000fd5b505050506040513d6000823e601f3d9081017fffffffffffffffffffffffffffffffffffffffffffffffffffffffffffffffe0168201604052610d7d9190810190612d1e565b9392505050565b610d8c610f5b565b73ffffffffffffffffffffffffffffffffffffffff8116610ddc576040517f1e4fbdf700000000000000000000000000000000000000000000000000000000815260006004820152602401610664565b610de58161116c565b50565b60007fffffffff0000000000000000000000000000000000000000000000000000000082167f80ac58cd000000000000000000000000000000000000000000000000000000001480610e7b57507fffffffff0000000000000000000000000000000000000000000000000000000082167f5b5e139f00000000000000000000000000000000000000000000000000000000145b8061053b57507f01ffc9a7000000000000000000000000000000000000000000000000000000007fffffffff0000000000000000000000000000000000000000000000000000000083161461053b565b60008181526002602052604081205473ffffffffffffffffffffffffffffffffffffffff168061053b576040517f7e27328900000000000000000000000000000000000000000000000000000000815260048101849052602401610664565b6108658383836001611698565b600080610f45858585611863565b9050610f53818660016119e0565b949350505050565b600c5473ffffffffffffffffffffffffffffffffffffffff16331461099e576040517f118cdaa7000000000000000000000000000000000000000000000000000000008152336004820152602401610664565b600065ffffffffffff821115610ffa576040517f6dfcc6500000000000000000000000000000000000000000000000000000000081526030600482015260248101839052604401610664565b5090565b81546000908181600581111561105d57600061101984611a82565b6110239085612d95565b60008881526020902090915081015465ffffffffffff908116908716101561104d5780915061105b565b611058816001612da8565b92505b505b600061106b87878585611bde565b905080156110bc5761109087611082600184612d95565b600091825260209091200190565b546601000000000000900479ffffffffffffffffffffffffffffffffffffffffffffffffffff166110bf565b60005b979650505050505050565b6000610aa243610fae565b73ffffffffffffffffffffffffffffffffffffffff82811660008181526009602052604080822080548686167fffffffffffffffffffffffff0000000000000000000000000000000000000000821681179092559151919094169392849290917f3134e8a2e6d97e929a7e54011ea5485d7d196dd5f0ba4d4ef95803e8e3fc257f9190a4610865818361116786611c40565b611c4b565b600c805473ffffffffffffffffffffffffffffffffffffffff8381167fffffffffffffffffffffffff0000000000000000000000000000000000000000831681179093556040519116919082907f8be0079c531659141344cd1fd0a4f28419497f9722a3daafe3b4186f6b6457e090600090a35050565b6060610aa27f00000000000000000000000000000000000000000000000000000000000000006006611e66565b6060610aa27f00000000000000000000000000000000000000000000000000000000000000006007611e66565b805460009080156112835761125783611082600184612d95565b546601000000000000900479ffffffffffffffffffffffffffffffffffffffffffffffffffff16610d7d565b60009392505050565b73ffffffffffffffffffffffffffffffffffffffff82166112f1576040517f5b08ba1800000000000000000000000000000000000000000000000000000000815273ffffffffffffffffffffffffffffffffffffffff83166004820152602401610664565b73ffffffffffffffffffffffffffffffffffffffff83811660008181526005602090815260408083209487168084529482529182902080547fffffffffffffffffffffffffffffffffffffffffffffffffffffffffffffff001686151590811790915591519182527f17307eab39ab6107e8899845ad3d59bd9653f200f220920489ca2b5937696c31910160405180910390a3505050565b73ffffffffffffffffffffffffffffffffffffffff83163b1561157b576040517f150b7a0200000000000000000000000000000000000000000000000000000000815273ffffffffffffffffffffffffffffffffffffffff84169063150b7a02906113fe908890889087908790600401612dbb565b6020604051808303816000875af1925050508015611457575060408051601f3d9081017fffffffffffffffffffffffffffffffffffffffffffffffffffffffffffffffe016820190925261145491810190612e04565b60015b6114e6573d808015611485576040519150601f19603f3d011682016040523d82523d6000602084013e61148a565b606091505b5080516000036114de576040517f64a0ae9200000000000000000000000000000000000000000000000000000000815273ffffffffffffffffffffffffffffffffffffffff85166004820152602401610664565b805181602001fd5b7fffffffff0000000000000000000000000000000000000000000000000000000081167f150b7a020000000000000000000000000000000000000000000000000000000014611579576040517f64a0ae9200000000000000000000000000000000000000000000000000000000815273ffffffffffffffffffffffffffffffffffffffff85166004820152602401610664565b505b5050505050565b610614828260405180602001604052806000815250611f11565b600061053b6115a9611f29565b836040517f19010000000000000000000000000000000000000000000000000000000000008152600281019290925260228201526042902090565b6000806000806115f688888888612061565b925092509250611606828261215b565b50909695505050505050565b73ffffffffffffffffffffffffffffffffffffffff82166000908152600860205260409020805460018101909155818114610865576040517f752d88c000000000000000000000000000000000000000000000000000000000815273ffffffffffffffffffffffffffffffffffffffff8416600482015260248101829052604401610664565b80806116b9575073ffffffffffffffffffffffffffffffffffffffff821615155b1561180e5760006116c984610ecb565b905073ffffffffffffffffffffffffffffffffffffffff83161580159061171c57508273ffffffffffffffffffffffffffffffffffffffff168173ffffffffffffffffffffffffffffffffffffffff1614155b801561175b575073ffffffffffffffffffffffffffffffffffffffff80821660009081526005602090815260408083209387168352929052205460ff16155b156117aa576040517fa9fbf51f00000000000000000000000000000000000000000000000000000000815273ffffffffffffffffffffffffffffffffffffffff84166004820152602401610664565b811561180c57838573ffffffffffffffffffffffffffffffffffffffff168273ffffffffffffffffffffffffffffffffffffffff167f8c5be1e5ebec7d5bd14f71427d1e84f3dd0314c0f7b2291e5b200ac8c7c3b92560405160405180910390a45b505b5050600090815260046020526040902080547fffffffffffffffffffffffff00000000000000000000000000000000000000001673ffffffffffffffffffffffffffffffffffffffff92909216919091179055565b60008281526002602052604081205473ffffffffffffffffffffffffffffffffffffffff9081169083161561189d5761189d81848661225f565b73ffffffffffffffffffffffffffffffffffffffff811615611913576118c7600085600080611698565b73ffffffffffffffffffffffffffffffffffffffff8116600090815260036020526040902080547fffffffffffffffffffffffffffffffffffffffffffffffffffffffffffffffff0190555b73ffffffffffffffffffffffffffffffffffffffff85161561195c5773ffffffffffffffffffffffffffffffffffffffff85166000908152600360205260409020805460010190555b60008481526002602052604080822080547fffffffffffffffffffffffff00000000000000000000000000000000000000001673ffffffffffffffffffffffffffffffffffffffff89811691821790925591518793918516917fddf252ad1be2c89b69c2b068fc378daa952ba7f163c4a11628f55a4df523b3ef91a4949350505050565b73ffffffffffffffffffffffffffffffffffffffff8316611a1457611a11600b61230f611a0c8461231b565b61237b565b50505b73ffffffffffffffffffffffffffffffffffffffff8216611a4357611a40600b6123b4611a0c8461231b565b50505b73ffffffffffffffffffffffffffffffffffffffff83811660009081526009602052604080822054858416835291205461086592918216911683611c4b565b600081600003611a9457506000919050565b60006001611b1584600160806fffffffffffffffffffffffffffffffff83110291821c604067ffffffffffffffff82110290811c602063ffffffff82110290811c601061ffff82110290811c600860ff82110290811c6004600f82110290811c6002600382110290811c969096119490960192909201010192909201010190565b901c6001901b90506001818481611b2e57611b2e612e21565b048201901c90506001818481611b4657611b46612e21565b048201901c90506001818481611b5e57611b5e612e21565b048201901c90506001818481611b7657611b76612e21565b048201901c90506001818481611b8e57611b8e612e21565b048201901c90506001818481611ba657611ba6612e21565b048201901c90506001818481611bbe57611bbe612e21565b048201901c9050610d7d81828581611bd857611bd8612e21565b046123c0565b60005b81831015611c38576000611bf584846123d6565b60008781526020902090915065ffffffffffff86169082015465ffffffffffff161115611c2457809250611c32565b611c2f816001612da8565b93505b50611be1565b509392505050565b600061053b82610911565b8173ffffffffffffffffffffffffffffffffffffffff168373ffffffffffffffffffffffffffffffffffffffff1614158015611c875750600081115b156108655773ffffffffffffffffffffffffffffffffffffffff831615611d775773ffffffffffffffffffffffffffffffffffffffff83166000908152600a602052604081208190611cdf906123b4611a0c8661231b565b79ffffffffffffffffffffffffffffffffffffffffffffffffffff16915079ffffffffffffffffffffffffffffffffffffffffffffffffffff1691508473ffffffffffffffffffffffffffffffffffffffff167fdec2bacdd2f05b59de34da9b523dff8be42e5e38e818c82fdb0bae774387a7248383604051611d6c929190918252602082015260400190565b60405180910390a250505b73ffffffffffffffffffffffffffffffffffffffff8216156108655773ffffffffffffffffffffffffffffffffffffffff82166000908152600a602052604081208190611dca9061230f611a0c8661231b565b79ffffffffffffffffffffffffffffffffffffffffffffffffffff16915079ffffffffffffffffffffffffffffffffffffffffffffffffffff1691508373ffffffffffffffffffffffffffffffffffffffff167fdec2bacdd2f05b59de34da9b523dff8be42e5e38e818c82fdb0bae774387a7248383604051611e57929190918252602082015260400190565b60405180910390a25050505050565b606060ff8314611e8057611e79836123f1565b905061053b565b818054611e8c90612c64565b80601f0160208091040260200160405190810160405280929190818152602001828054611eb890612c64565b8015611f055780601f10611eda57610100808354040283529160200191611f05565b820191906000526020600020905b815481529060010190602001808311611ee857829003601f168201915b5050505050905061053b565b611f1b8383612430565b610865336000858585611389565b60003073ffffffffffffffffffffffffffffffffffffffff7f000000000000000000000000000000000000000000000000000000000000000016148015611f8f57507f000000000000000000000000000000000000000000000000000000000000000046145b15611fb957507f000000000000000000000000000000000000000000000000000000000000000090565b610aa2604080517f8b73c3c69bb8fe3d512ecc4cf759cc79239f7b179b0ffacaa9a75d522b39400f60208201527f0000000000000000000000000000000000000000000000000000000000000000918101919091527f000000000000000000000000000000000000000000000000000000000000000060608201524660808201523060a082015260009060c00160405160208183030381529060405280519060200120905090565b600080807f7fffffffffffffffffffffffffffffff5d576e7357a4501ddfe92f46681b20a084111561209c5750600091506003905082612151565b604080516000808252602082018084528a905260ff891692820192909252606081018790526080810186905260019060a0016020604051602081039080840390855afa1580156120f0573d6000803e3d6000fd5b50506040517fffffffffffffffffffffffffffffffffffffffffffffffffffffffffffffffe0015191505073ffffffffffffffffffffffffffffffffffffffff811661214757506000925060019150829050612151565b9250600091508190505b9450945094915050565b600082600381111561216f5761216f612e50565b03612178575050565b600182600381111561218c5761218c612e50565b036121c3576040517ff645eedf00000000000000000000000000000000000000000000000000000000815260040160405180910390fd5b60028260038111156121d7576121d7612e50565b03612211576040517ffce698f700000000000000000000000000000000000000000000000000000000815260048101829052602401610664565b600382600381111561222557612225612e50565b03610614576040517fd78bce0c00000000000000000000000000000000000000000000000000000000815260048101829052602401610664565b61226a8383836124e1565b6108655773ffffffffffffffffffffffffffffffffffffffff83166122be576040517f7e27328900000000000000000000000000000000000000000000000000000000815260048101829052602401610664565b6040517f177e802f00000000000000000000000000000000000000000000000000000000815273ffffffffffffffffffffffffffffffffffffffff8316600482015260248101829052604401610664565b6000610d7d8284612e7f565b600079ffffffffffffffffffffffffffffffffffffffffffffffffffff821115610ffa576040517f6dfcc65000000000000000000000000000000000000000000000000000000000815260d0600482015260248101839052604401610664565b6000806123a7612389610a98565b61239f6123958861123d565b868863ffffffff16565b8791906125a5565b915091505b935093915050565b6000610d7d8284612eb9565b60008183106123cf5781610d7d565b5090919050565b60006123e56002848418612eec565b610d7d90848416612da8565b606060006123fe836125b3565b604080516020808252818301909252919250600091906020820181803683375050509182525060208101929092525090565b73ffffffffffffffffffffffffffffffffffffffff8216612480576040517f64a0ae9200000000000000000000000000000000000000000000000000000000815260006004820152602401610664565b600061248e83836000610f37565b905073ffffffffffffffffffffffffffffffffffffffff811615610865576040517f73c6ac6e00000000000000000000000000000000000000000000000000000000815260006004820152602401610664565b600073ffffffffffffffffffffffffffffffffffffffff831615801590610f5357508273ffffffffffffffffffffffffffffffffffffffff168473ffffffffffffffffffffffffffffffffffffffff16148061256f575073ffffffffffffffffffffffffffffffffffffffff80851660009081526005602090815260408083209387168352929052205460ff165b80610f5357505060009081526004602052604090205473ffffffffffffffffffffffffffffffffffffffff908116911614919050565b6000806123a78585856125f4565b600060ff8216601f81111561053b576040517fb3512b0c00000000000000000000000000000000000000000000000000000000815260040160405180910390fd5b82546000908190801561275f57600061261287611082600185612d95565b805490915065ffffffffffff808216916601000000000000900479ffffffffffffffffffffffffffffffffffffffffffffffffffff16908816821115612684576040517f2520601d00000000000000000000000000000000000000000000000000000000815260040160405180910390fd5b8765ffffffffffff168265ffffffffffff16036126ea57866126ab8a611082600188612d95565b805479ffffffffffffffffffffffffffffffffffffffffffffffffffff9290921666010000000000000265ffffffffffff909216919091179055612751565b6040805180820190915265ffffffffffff808a16825279ffffffffffffffffffffffffffffffffffffffffffffffffffff808a1660208085019182528d54600181018f5560008f815291909120945191519092166601000000000000029216919091179101555b94508593506123ac92505050565b50506040805180820190915265ffffffffffff808516825279ffffffffffffffffffffffffffffffffffffffffffffffffffff80851660208085019182528854600181018a5560008a81529182209551925190931666010000000000000291909316179201919091559050816123ac565b7fffffffff0000000000000000000000000000000000000000000000000000000081168114610de557600080fd5b60006020828403121561281057600080fd5b8135610d7d816127d0565b60005b8381101561283657818101518382015260200161281e565b50506000910152565b6000815180845261285781602086016020860161281b565b601f017fffffffffffffffffffffffffffffffffffffffffffffffffffffffffffffffe0169290920160200192915050565b602081526000610d7d602083018461283f565b6000602082840312156128ae57600080fd5b5035919050565b73ffffffffffffffffffffffffffffffffffffffff81168114610de557600080fd5b600080604083850312156128ea57600080fd5b82356128f5816128b5565b946020939093013593505050565b60008060006060848603121561291857600080fd5b8335612923816128b5565b92506020840135612933816128b5565b929592945050506040919091013590565b60006020828403121561295657600080fd5b8135610d7d816128b5565b7fff00000000000000000000000000000000000000000000000000000000000000881681526000602060e0602084015261299e60e084018a61283f565b83810360408501526129b0818a61283f565b6060850189905273ffffffffffffffffffffffffffffffffffffffff8816608086015260a0850187905284810360c08601528551808252602080880193509091019060005b81811015612a11578351835292840192918401916001016129f5565b50909c9b505050505050505050505050565b60008060408385031215612a3657600080fd5b8235612a41816128b5565b915060208301358015158114612a5657600080fd5b809150509250929050565b7f4e487b7100000000000000000000000000000000000000000000000000000000600052604160045260246000fd5b604051601f82017fffffffffffffffffffffffffffffffffffffffffffffffffffffffffffffffe016810167ffffffffffffffff81118282101715612ad757612ad7612a61565b604052919050565b600067ffffffffffffffff821115612af957612af9612a61565b50601f017fffffffffffffffffffffffffffffffffffffffffffffffffffffffffffffffe01660200190565b60008060008060808587031215612b3b57600080fd5b8435612b46816128b5565b93506020850135612b56816128b5565b925060408501359150606085013567ffffffffffffffff811115612b7957600080fd5b8501601f81018713612b8a57600080fd5b8035612b9d612b9882612adf565b612a90565b818152886020838501011115612bb257600080fd5b8160208401602083013760006020838301015280935050505092959194509250565b60008060008060008060c08789031215612bed57600080fd5b8635612bf8816128b5565b95506020870135945060408701359350606087013560ff81168114612c1c57600080fd5b9598949750929560808101359460a0909101359350915050565b60008060408385031215612c4957600080fd5b8235612c54816128b5565b91506020830135612a56816128b5565b600181811c90821680612c7857607f821691505b602082108103612cb1577f4e487b7100000000000000000000000000000000000000000000000000000000600052602260045260246000fd5b50919050565b7f4e487b7100000000000000000000000000000000000000000000000000000000600052601160045260246000fd5b60007fffffffffffffffffffffffffffffffffffffffffffffffffffffffffffffffff8203612d1757612d17612cb7565b5060010190565b600060208284031215612d3057600080fd5b815167ffffffffffffffff811115612d4757600080fd5b8201601f81018413612d5857600080fd5b8051612d66612b9882612adf565b818152856020838501011115612d7b57600080fd5b612d8c82602083016020860161281b565b95945050505050565b8181038181111561053b5761053b612cb7565b8082018082111561053b5761053b612cb7565b600073ffffffffffffffffffffffffffffffffffffffff808716835280861660208401525083604083015260806060830152612dfa608083018461283f565b9695505050505050565b600060208284031215612e1657600080fd5b8151610d7d816127d0565b7f4e487b7100000000000000000000000000000000000000000000000000000000600052601260045260246000fd5b7f4e487b7100000000000000000000000000000000000000000000000000000000600052602160045260246000fd5b79ffffffffffffffffffffffffffffffffffffffffffffffffffff818116838216019080821115612eb257612eb2612cb7565b5092915050565b79ffffffffffffffffffffffffffffffffffffffffffffffffffff828116828216039080821115612eb257612eb2612cb7565b600082612f22577f4e487b7100000000000000000000000000000000000000000000000000000000600052601260045260246000fd5b50049056fea26469706673582212203d20fa0edc3d4ccd4276a3a4c3ed9005cb9a1929207aaecdf9c13cfdffeb3a5264736f6c63430008170033","linkReferences":{}},"methodIdentifiers":{"CLOCK_MODE()":"4bf5d7e9","approve(address,uint256)":"095ea7b3","balanceOf(address)":"70a08231","clock()":"91ddadf4","count()":"06661abd","createFor(address)":"c0715888","delegate(address)":"5c19a95c","delegateBySig(address,uint256,uint256,uint8,bytes32,bytes32)":"c3cda520","delegates(address)":"587cde1e","eip712Domain()":"84b0196e","getApproved(uint256)":"081812fc","getPastTotalSupply(uint256)":"8e539e8c","getPastVotes(address,uint256)":"3a46b1a8","getVotes(address)":"9ab24eb0","isApprovedForAll(address,address)":"e985e9c5","name()":"06fdde03","nonces(address)":"7ecebe00","owner()":"8da5cb5b","ownerOf(uint256)":"6352211e","renounceOwnership()":"715018a6","safeTransferFrom(address,address,uint256)":"42842e0e","safeTransferFrom(address,address,uint256,bytes)":"b88d4fde","setApprovalForAll(address,bool)":"a22cb465","setTokenUriResolver(address)":"2407497e","supportsInterface(bytes4)":"01ffc9a7","symbol()":"95d89b41","tokenURI(uint256)":"c87b56dd","tokenUriResolver()":"e131fc0c","transferFrom(address,address,uint256)":"23b872dd","transferOwnership(address)":"f2fde38b"},"id":24}