{"abi":[{"type":"constructor","inputs":[{"name":"projects","type":"address","internalType":"contract IJBProjects"},{"name":"permissions","type":"address","internalType":"contract IJBPermissions"}],"stateMutability":"nonpayable"},{"type":"function","name":"PERMISSIONS","inputs":[],"outputs":[{"name":"","type":"address","internalType":"contract IJBPermissions"}],"stateMutability":"view"},{"type":"function","name":"PROJECTS","inputs":[],"outputs":[{"name":"","type":"address","internalType":"contract IJBProjects"}],"stateMutability":"view"},{"type":"function","name":"TEXT_KEY","inputs":[],"outputs":[{"name":"","type":"string","internalType":"string"}],"stateMutability":"view"},{"type":"function","name":"ensNamePartsOf","inputs":[{"name":"projectId","type":"uint256","internalType":"uint256"}],"outputs":[{"name":"","type":"string[]","internalType":"string[]"}],"stateMutability":"view"},{"type":"function","name":"ensRegistry","inputs":[],"outputs":[{"name":"","type":"address","internalType":"contract ENS"}],"stateMutability":"view"},{"type":"function","name":"handleOf","inputs":[{"name":"projectId","type":"uint256","internalType":"uint256"}],"outputs":[{"name":"","type":"string","internalType":"string"}],"stateMutability":"view"},{"type":"function","name":"setEnsNamePartsFor","inputs":[{"name":"projectId","type":"uint256","internalType":"uint256"},{"name":"parts","type":"string[]","internalType":"string[]"}],"outputs":[],"stateMutability":"nonpayable"},{"type":"event","name":"SetEnsNameParts","inputs":[{"name":"projectId","type":"uint256","indexed":true,"internalType":"uint256"},{"name":"handle","type":"string","indexed":true,"internalType":"string"},{"name":"parts","type":"string[]","indexed":false,"internalType":"string[]"},{"name":"caller","type":"address","indexed":false,"internalType":"address"}],"anonymous":false},{"type":"error","name":"EMPTY_NAME_PART","inputs":[]},{"type":"error","name":"NO_PARTS","inputs":[]},{"type":"error","name":"UNAUTHORIZED","inputs":[]}],"bytecode":{"object":"0x60c060405234801561001057600080fd5b5060405161123c38038061123c83398101604081905261002f9161005e565b6001600160a01b039081166080521660a052610098565b6001600160a01b038116811461005b57600080fd5b50565b6000806040838503121561007157600080fd5b825161007c81610046565b602084015190925061008d81610046565b809150509250929050565b60805160a05161116b6100d1600039600081816087015261019901526000818161015d015281816106ae0152610757015261116b6000f3fe608060405234801561001057600080fd5b506004361061007d5760003560e01c8063494919871161005b57806349491987146100fb5780637d73b2311461011b578063c548f30914610131578063f434c9141461015857600080fd5b8063293c4999146100825780632b5b94ad146100c657806330abe987146100db575b600080fd5b6100a97f000000000000000000000000000000000000000000000000000000000000000081565b6040516001600160a01b0390911681526020015b60405180910390f35b6100d96100d4366004610c13565b61017f565b005b6100ee6100e9366004610d25565b610302565b6040516100bd9190610de8565b61010e610109366004610d25565b6103e5565b6040516100bd9190610e02565b6100a96e0c2e074ec69a0dfb2997ba6c7d2e1e81565b61010e604051806040016040528060088152602001670d4ead2c6cac4def60c31b81525081565b6100a97f000000000000000000000000000000000000000000000000000000000000000081565b6040516331a9108f60e11b815260048101839052610214907f00000000000000000000000000000000000000000000000000000000000000006001600160a01b031690636352211e90602401602060405180830381865afa1580156101e8573d6000803e3d6000fd5b505050506040513d601f19601f8201168201806040525081019061020c9190610e15565b836013610664565b80516000819003610238576040516314124ae160e31b815260040160405180910390fd5b60005b818110156102865782818151811061025557610255610e3e565b60200260200101515160000361027e57604051630186fe0d60e51b815260040160405180910390fd5b60010161023b565b5060008381526020818152604090912083516102a492850190610adf565b506102ae826107e8565b6040516102bb9190610e54565b6040518091039020837f2f08b921e66e530e39c2a5a6a1d27d9967e793a553c83bfaf3cb47433021a14c84336040516102f5929190610e70565b60405180910390a3505050565b600081815260208181526040808320805482518185028101850190935280835260609492939192909184015b828210156103da57838290600052602060002001805461034d90610e9a565b80601f016020809104026020016040519081016040528092919081815260200182805461037990610e9a565b80156103c65780601f1061039b576101008083540402835291602001916103c6565b820191906000526020600020905b8154815290600101906020018083116103a957829003601f168201915b50505050508152602001906001019061032e565b505050509050919050565b600081815260208181526040808320805482518185028101850190935280835260609493849084015b828210156104ba57838290600052602060002001805461042d90610e9a565b80601f016020809104026020016040519081016040528092919081815260200182805461045990610e9a565b80156104a65780601f1061047b576101008083540402835291602001916104a6565b820191906000526020600020905b81548152906001019060200180831161048957829003601f168201915b50505050508152602001906001019061040e565b50505050905080516000036104df575050604080516020810190915260008152919050565b60006104ea82610881565b604051630178b8bf60e01b8152600481018290529091506000906e0c2e074ec69a0dfb2997ba6c7d2e1e90630178b8bf90602401602060405180830381865afa15801561053b573d6000803e3d6000fd5b505050506040513d601f19601f8201168201806040525081019061055f9190610e15565b90506001600160a01b0381166105875750506040805160208101909152600081529392505050565b60408051808201825260088152670d4ead2c6cac4def60c31b60208201529051631674750f60e21b81526000916001600160a01b038416916359d1d43c916105d491879190600401610ed4565b600060405180830381865afa1580156105f1573d6000803e3d6000fd5b505050506040513d6000823e601f3d908101601f191682016040526106199190810190610ef5565b905061062486610973565b80519060200120818051906020012014610651575050604080516020810190915260008152949350505050565b61065a846107e8565b9695505050505050565b336001600160a01b038416811480159061071b575060405163c161c93f60e01b81526001600160a01b038281166004830152858116602483015260448201859052606482018490527f0000000000000000000000000000000000000000000000000000000000000000169063c161c93f90608401602060405180830381865afa1580156106f5573d6000803e3d6000fd5b505050506040513d601f19601f820116820180604052508101906107199190610f6c565b155b80156107c4575060405163c161c93f60e01b81526001600160a01b038281166004830152858116602483015260006044830152606482018490527f0000000000000000000000000000000000000000000000000000000000000000169063c161c93f90608401602060405180830381865afa15801561079e573d6000803e3d6000fd5b505050506040513d601f19601f820116820180604052508101906107c29190610f6c565b155b156107e25760405163075fd2b160e01b815260040160405180910390fd5b50505050565b805160609060015b81811161087a5782846108038385610fa4565b8151811061081357610813610e3e565b602002602001015160405160200161082c929190610fb7565b60405160208183030381529060405292508181101561086857826040516020016108569190610fe6565b60405160208183030381529060405292505b806108728161100b565b9150506107f0565b5050919050565b60008060405160200161089d90620cae8d60eb1b815260030190565b604051602081830303815290604052805190602001206040516020016108cd929190918252602082015260400190565b60405160208183030381529060405280519060200120905060008251905060005b8181101561087a578284828151811061090957610909610e3e565b60200260200101516040516020016109219190610e54565b60405160208183030381529060405280519060200120604051602001610951929190918252602082015260400190565b60408051601f19818403018152919052805160209091012092506001016108ee565b6060600061098083610a06565b600101905060008167ffffffffffffffff8111156109a0576109a0610ba4565b6040519080825280601f01601f1916602001820160405280156109ca576020820181803683370190505b5090508181016020015b600019016f181899199a1a9b1b9c1cb0b131b232b360811b600a86061a8153600a85049450846109d457509392505050565b60008072184f03e93ff9f4daa797ed6e38ed64bf6a1f0160401b8310610a455772184f03e93ff9f4daa797ed6e38ed64bf6a1f0160401b830492506040015b6d04ee2d6d415b85acef81000000008310610a71576d04ee2d6d415b85acef8100000000830492506020015b662386f26fc100008310610a8f57662386f26fc10000830492506010015b6305f5e1008310610aa7576305f5e100830492506008015b6127108310610abb57612710830492506004015b60648310610acd576064830492506002015b600a8310610ad9576001015b92915050565b828054828255906000526020600020908101928215610b25579160200282015b82811115610b255782518290610b159082611075565b5091602001919060010190610aff565b50610b31929150610b35565b5090565b80821115610b31576000610b498282610b52565b50600101610b35565b508054610b5e90610e9a565b6000825580601f10610b6e575050565b601f016020900490600052602060002090810190610b8c9190610b8f565b50565b5b80821115610b315760008155600101610b90565b634e487b7160e01b600052604160045260246000fd5b604051601f8201601f1916810167ffffffffffffffff81118282101715610be357610be3610ba4565b604052919050565b600067ffffffffffffffff821115610c0557610c05610ba4565b50601f01601f191660200190565b6000806040808486031215610c2757600080fd5b8335925060208085013567ffffffffffffffff80821115610c4757600080fd5b818701915087601f830112610c5b57600080fd5b813581811115610c6d57610c6d610ba4565b8060051b610c7c858201610bba565b918252838101850191858101908b841115610c9657600080fd5b86860192505b83831015610d1357823585811115610cb45760008081fd5b8601603f81018d13610cc65760008081fd5b87810135610cdb610cd682610beb565b610bba565b8181528e8b838501011115610cf05760008081fd5b818b84018b83013760009181018a01919091528352509186019190860190610c9c565b80985050505050505050509250929050565b600060208284031215610d3757600080fd5b5035919050565b60005b83811015610d59578181015183820152602001610d41565b50506000910152565b60008151808452610d7a816020860160208601610d3e565b601f01601f19169290920160200192915050565b60008282518085526020808601955060208260051b8401016020860160005b84811015610ddb57601f19868403018952610dc9838351610d62565b98840198925090830190600101610dad565b5090979650505050505050565b602081526000610dfb6020830184610d8e565b9392505050565b602081526000610dfb6020830184610d62565b600060208284031215610e2757600080fd5b81516001600160a01b0381168114610dfb57600080fd5b634e487b7160e01b600052603260045260246000fd5b60008251610e66818460208701610d3e565b9190910192915050565b604081526000610e836040830185610d8e565b905060018060a01b03831660208301529392505050565b600181811c90821680610eae57607f821691505b602082108103610ece57634e487b7160e01b600052602260045260246000fd5b50919050565b828152604060208201526000610eed6040830184610d62565b949350505050565b600060208284031215610f0757600080fd5b815167ffffffffffffffff811115610f1e57600080fd5b8201601f81018413610f2f57600080fd5b8051610f3d610cd682610beb565b818152856020838501011115610f5257600080fd5b610f63826020830160208601610d3e565b95945050505050565b600060208284031215610f7e57600080fd5b81518015158114610dfb57600080fd5b634e487b7160e01b600052601160045260246000fd5b81810381811115610ad957610ad9610f8e565b60008351610fc9818460208801610d3e565b835190830190610fdd818360208801610d3e565b01949350505050565b60008251610ff8818460208701610d3e565b601760f91b920191825250600101919050565b60006001820161101d5761101d610f8e565b5060010190565b601f821115611070576000816000526020600020601f850160051c8101602086101561104d5750805b601f850160051c820191505b8181101561106c57828155600101611059565b5050505b505050565b815167ffffffffffffffff81111561108f5761108f610ba4565b6110a38161109d8454610e9a565b84611024565b602080601f8311600181146110d857600084156110c05750858301515b600019600386901b1c1916600185901b17855561106c565b600085815260208120601f198616915b82811015611107578886015182559484019460019091019084016110e8565b50858210156111255787850151600019600388901b60f8161c191681555b5050505050600190811b0190555056fea264697066735822122027aff6fca77f7559fde59a795f7e783beb93169d9472fc92d06c78fe323cd3ca64736f6c63430008170033","linkReferences":{}},"methodIdentifiers":{"PERMISSIONS()":"f434c914","PROJECTS()":"293c4999","TEXT_KEY()":"c548f309","ensNamePartsOf(uint256)":"30abe987","ensRegistry()":"7d73b231","handleOf(uint256)":"49491987","setEnsNamePartsFor(uint256,string[])":"2b5b94ad"},"id":0}