{"abi":[{"type":"constructor","inputs":[{"name":"projects","type":"address","internalType":"contract IJBProjects"},{"name":"permissions","type":"address","internalType":"contract IJBPermissions"}],"stateMutability":"nonpayable"},{"type":"function","name":"ENS_REGISTRY","inputs":[],"outputs":[{"name":"","type":"address","internalType":"contract ENS"}],"stateMutability":"view"},{"type":"function","name":"PERMISSIONS","inputs":[],"outputs":[{"name":"","type":"address","internalType":"contract IJBPermissions"}],"stateMutability":"view"},{"type":"function","name":"PROJECTS","inputs":[],"outputs":[{"name":"","type":"address","internalType":"contract IJBProjects"}],"stateMutability":"view"},{"type":"function","name":"TEXT_KEY","inputs":[],"outputs":[{"name":"","type":"string","internalType":"string"}],"stateMutability":"view"},{"type":"function","name":"ensNamePartsOf","inputs":[{"name":"projectId","type":"uint256","internalType":"uint256"}],"outputs":[{"name":"","type":"string[]","internalType":"string[]"}],"stateMutability":"view"},{"type":"function","name":"handleOf","inputs":[{"name":"projectId","type":"uint256","internalType":"uint256"}],"outputs":[{"name":"","type":"string","internalType":"string"}],"stateMutability":"view"},{"type":"function","name":"setEnsNamePartsFor","inputs":[{"name":"projectId","type":"uint256","internalType":"uint256"},{"name":"parts","type":"string[]","internalType":"string[]"}],"outputs":[],"stateMutability":"nonpayable"},{"type":"event","name":"SetEnsNameParts","inputs":[{"name":"projectId","type":"uint256","indexed":true,"internalType":"uint256"},{"name":"handle","type":"string","indexed":true,"internalType":"string"},{"name":"parts","type":"string[]","indexed":false,"internalType":"string[]"},{"name":"caller","type":"address","indexed":false,"internalType":"address"}],"anonymous":false},{"type":"error","name":"EMPTY_NAME_PART","inputs":[]},{"type":"error","name":"NO_PARTS","inputs":[]},{"type":"error","name":"UNAUTHORIZED","inputs":[]}],"bytecode":{"object":"0x60c060405234801561001057600080fd5b506040516115a03803806115a083398101604081905261002f9161005e565b6001600160a01b039081166080521660a052610098565b6001600160a01b038116811461005b57600080fd5b50565b6000806040838503121561007157600080fd5b825161007c81610046565b602084015190925061008d81610046565b809150509250929050565b60805160a0516114cf6100d160003960008181608701526101d401526000818161017f015281816107da01526108a901526114cf6000f3fe608060405234801561001057600080fd5b506004361061007d5760003560e01c8063494919871161005b578063494919871461010857806385e9691714610128578063c548f3091461013e578063f434c9141461017a57600080fd5b8063293c4999146100825780632b5b94ad146100d357806330abe987146100e8575b600080fd5b6100a97f000000000000000000000000000000000000000000000000000000000000000081565b60405173ffffffffffffffffffffffffffffffffffffffff90911681526020015b60405180910390f35b6100e66100e1366004610e40565b6101a1565b005b6100fb6100f6366004610f52565b61037c565b6040516100ca9190611051565b61011b610116366004610f52565b61045f565b6040516100ca919061106b565b6100a96e0c2e074ec69a0dfb2997ba6c7d2e1e81565b61011b6040518060400160405280600881526020017f6a75696365626f7800000000000000000000000000000000000000000000000081525081565b6100a97f000000000000000000000000000000000000000000000000000000000000000081565b6040517f6352211e0000000000000000000000000000000000000000000000000000000081526004810183905261025c907f000000000000000000000000000000000000000000000000000000000000000073ffffffffffffffffffffffffffffffffffffffff1690636352211e90602401602060405180830381865afa158015610230573d6000803e3d6000fd5b505050506040513d601f19601f82011682018060405250810190610254919061107e565b83601361075d565b80516000819003610299576040517fa092570800000000000000000000000000000000000000000000000000000000815260040160405180910390fd5b60005b81811015610300578281815181106102b6576102b66110b4565b6020026020010151516000036102f8576040517f30dfc1a000000000000000000000000000000000000000000000000000000000815260040160405180910390fd5b60010161029c565b50600083815260208181526040909120835161031e92850190610cb7565b5061032882610953565b60405161033591906110e3565b6040518091039020837f2f08b921e66e530e39c2a5a6a1d27d9967e793a553c83bfaf3cb47433021a14c843360405161036f9291906110ff565b60405180910390a3505050565b600081815260208181526040808320805482518185028101850190935280835260609492939192909184015b828210156104545783829060005260206000200180546103c790611137565b80601f01602080910402602001604051908101604052809291908181526020018280546103f390611137565b80156104405780601f1061041557610100808354040283529160200191610440565b820191906000526020600020905b81548152906001019060200180831161042357829003601f168201915b5050505050815260200190600101906103a8565b505050509050919050565b600081815260208181526040808320805482518185028101850190935280835260609493849084015b828210156105345783829060005260206000200180546104a790611137565b80601f01602080910402602001604051908101604052809291908181526020018280546104d390611137565b80156105205780601f106104f557610100808354040283529160200191610520565b820191906000526020600020905b81548152906001019060200180831161050357829003601f168201915b505050505081526020019060010190610488565b5050505090508051600003610559575050604080516020810190915260008152919050565b6000610564826109ec565b6040517f0178b8bf000000000000000000000000000000000000000000000000000000008152600481018290529091506000906e0c2e074ec69a0dfb2997ba6c7d2e1e90630178b8bf90602401602060405180830381865afa1580156105ce573d6000803e3d6000fd5b505050506040513d601f19601f820116820180604052508101906105f2919061107e565b905073ffffffffffffffffffffffffffffffffffffffff81166106275750506040805160208101909152600081529392505050565b604080518082018252600881527f6a75696365626f78000000000000000000000000000000000000000000000000602082015290517f59d1d43c00000000000000000000000000000000000000000000000000000000815260009173ffffffffffffffffffffffffffffffffffffffff8416916359d1d43c916106af9187919060040161118a565b600060405180830381865afa1580156106cc573d6000803e3d6000fd5b505050506040513d6000823e601f3d9081017fffffffffffffffffffffffffffffffffffffffffffffffffffffffffffffffe016820160405261071291908101906111ab565b905061071d86610b16565b8051906020012081805190602001201461074a575050604080516020810190915260008152949350505050565b61075384610953565b9695505050505050565b3373ffffffffffffffffffffffffffffffffffffffff8416811480159061084757506040517fc161c93f00000000000000000000000000000000000000000000000000000000815273ffffffffffffffffffffffffffffffffffffffff8281166004830152858116602483015260448201859052606482018490527f0000000000000000000000000000000000000000000000000000000000000000169063c161c93f90608401602060405180830381865afa158015610821573d6000803e3d6000fd5b505050506040513d601f19601f820116820180604052508101906108459190611222565b155b801561091657506040517fc161c93f00000000000000000000000000000000000000000000000000000000815273ffffffffffffffffffffffffffffffffffffffff8281166004830152858116602483015260006044830152606482018490527f0000000000000000000000000000000000000000000000000000000000000000169063c161c93f90608401602060405180830381865afa1580156108f0573d6000803e3d6000fd5b505050506040513d601f19601f820116820180604052508101906109149190611222565b155b1561094d576040517f075fd2b100000000000000000000000000000000000000000000000000000000815260040160405180910390fd5b50505050565b805160609060015b8181116109e557828461096e8385611273565b8151811061097e5761097e6110b4565b6020026020010151604051602001610997929190611286565b6040516020818303038152906040529250818110156109d357826040516020016109c191906112b5565b60405160208183030381529060405292505b806109dd816112f6565b91505061095b565b5050919050565b600080604051602001610a22907f6574680000000000000000000000000000000000000000000000000000000000815260030190565b60405160208183030381529060405280519060200120604051602001610a52929190918252602082015260400190565b60405160208183030381529060405280519060200120905060008251905060005b818110156109e55782848281518110610a8e57610a8e6110b4565b6020026020010151604051602001610aa691906110e3565b60405160208183030381529060405280519060200120604051602001610ad6929190918252602082015260400190565b604080517fffffffffffffffffffffffffffffffffffffffffffffffffffffffffffffffe081840301815291905280516020909101209250600101610a73565b60606000610b2383610bd4565b600101905060008167ffffffffffffffff811115610b4357610b43610d7c565b6040519080825280601f01601f191660200182016040528015610b6d576020820181803683370190505b5090508181016020015b7fffffffffffffffffffffffffffffffffffffffffffffffffffffffffffffffff017f3031323334353637383961626364656600000000000000000000000000000000600a86061a8153600a8504945084610b7757509392505050565b6000807a184f03e93ff9f4daa797ed6e38ed64bf6a1f0100000000000000008310610c1d577a184f03e93ff9f4daa797ed6e38ed64bf6a1f010000000000000000830492506040015b6d04ee2d6d415b85acef81000000008310610c49576d04ee2d6d415b85acef8100000000830492506020015b662386f26fc100008310610c6757662386f26fc10000830492506010015b6305f5e1008310610c7f576305f5e100830492506008015b6127108310610c9357612710830492506004015b60648310610ca5576064830492506002015b600a8310610cb1576001015b92915050565b828054828255906000526020600020908101928215610cfd579160200282015b82811115610cfd5782518290610ced908261137f565b5091602001919060010190610cd7565b50610d09929150610d0d565b5090565b80821115610d09576000610d218282610d2a565b50600101610d0d565b508054610d3690611137565b6000825580601f10610d46575050565b601f016020900490600052602060002090810190610d649190610d67565b50565b5b80821115610d095760008155600101610d68565b7f4e487b7100000000000000000000000000000000000000000000000000000000600052604160045260246000fd5b604051601f82017fffffffffffffffffffffffffffffffffffffffffffffffffffffffffffffffe016810167ffffffffffffffff81118282101715610df257610df2610d7c565b604052919050565b600067ffffffffffffffff821115610e1457610e14610d7c565b50601f017fffffffffffffffffffffffffffffffffffffffffffffffffffffffffffffffe01660200190565b6000806040808486031215610e5457600080fd5b8335925060208085013567ffffffffffffffff80821115610e7457600080fd5b818701915087601f830112610e8857600080fd5b813581811115610e9a57610e9a610d7c565b8060051b610ea9858201610dab565b918252838101850191858101908b841115610ec357600080fd5b86860192505b83831015610f4057823585811115610ee15760008081fd5b8601603f81018d13610ef35760008081fd5b87810135610f08610f0382610dfa565b610dab565b8181528e8b838501011115610f1d5760008081fd5b818b84018b83013760009181018a01919091528352509186019190860190610ec9565b80985050505050505050509250929050565b600060208284031215610f6457600080fd5b5035919050565b60005b83811015610f86578181015183820152602001610f6e565b50506000910152565b60008151808452610fa7816020860160208601610f6b565b601f017fffffffffffffffffffffffffffffffffffffffffffffffffffffffffffffffe0169290920160200192915050565b60008282518085526020808601955060208260051b8401016020860160005b84811015611044577fffffffffffffffffffffffffffffffffffffffffffffffffffffffffffffffe0868403018952611032838351610f8f565b98840198925090830190600101610ff8565b5090979650505050505050565b6020815260006110646020830184610fd9565b9392505050565b6020815260006110646020830184610f8f565b60006020828403121561109057600080fd5b815173ffffffffffffffffffffffffffffffffffffffff8116811461106457600080fd5b7f4e487b7100000000000000000000000000000000000000000000000000000000600052603260045260246000fd5b600082516110f5818460208701610f6b565b9190910192915050565b6040815260006111126040830185610fd9565b905073ffffffffffffffffffffffffffffffffffffffff831660208301529392505050565b600181811c9082168061114b57607f821691505b602082108103611184577f4e487b7100000000000000000000000000000000000000000000000000000000600052602260045260246000fd5b50919050565b8281526040602082015260006111a36040830184610f8f565b949350505050565b6000602082840312156111bd57600080fd5b815167ffffffffffffffff8111156111d457600080fd5b8201601f810184136111e557600080fd5b80516111f3610f0382610dfa565b81815285602083850101111561120857600080fd5b611219826020830160208601610f6b565b95945050505050565b60006020828403121561123457600080fd5b8151801515811461106457600080fd5b7f4e487b7100000000000000000000000000000000000000000000000000000000600052601160045260246000fd5b81810381811115610cb157610cb1611244565b60008351611298818460208801610f6b565b8351908301906112ac818360208801610f6b565b01949350505050565b600082516112c7818460208701610f6b565b7f2e00000000000000000000000000000000000000000000000000000000000000920191825250600101919050565b60007fffffffffffffffffffffffffffffffffffffffffffffffffffffffffffffffff820361132757611327611244565b5060010190565b601f82111561137a576000816000526020600020601f850160051c810160208610156113575750805b601f850160051c820191505b8181101561137657828155600101611363565b5050505b505050565b815167ffffffffffffffff81111561139957611399610d7c565b6113ad816113a78454611137565b8461132e565b602080601f83116001811461140057600084156113ca5750858301515b7fffffffffffffffffffffffffffffffffffffffffffffffffffffffffffffffff600386901b1c1916600185901b178555611376565b6000858152602081207fffffffffffffffffffffffffffffffffffffffffffffffffffffffffffffffe08616915b8281101561144d5788860151825594840194600190910190840161142e565b508582101561148957878501517fffffffffffffffffffffffffffffffffffffffffffffffffffffffffffffffff600388901b60f8161c191681555b5050505050600190811b0190555056fea26469706673582212207340dc06d0974e11f17c150f5310b65eaff7e018c54cb9ebb832e763a7c0d5b364736f6c63430008170033","linkReferences":{}},"methodIdentifiers":{"ENS_REGISTRY()":"85e96917","PERMISSIONS()":"f434c914","PROJECTS()":"293c4999","TEXT_KEY()":"c548f309","ensNamePartsOf(uint256)":"30abe987","handleOf(uint256)":"49491987","setEnsNamePartsFor(uint256,string[])":"2b5b94ad"},"id":63}