{"abi":[{"type":"function","name":"SET_ENS_NAME_FOR","inputs":[],"outputs":[{"name":"","type":"uint256","internalType":"uint256"}],"stateMutability":"view"}],"bytecode":{"object":"0x6087610038600b82828239805160001a607314602b57634e487b7160e01b600052600060045260246000fd5b30600052607381538281f3fe730000000000000000000000000000000000000000301460806040526004361060335760003560e01c806333c658f1146038575b600080fd5b603f601381565b60405190815260200160405180910390f3fea26469706673582212208a3231f6d1501e5a91b60d6e514ac680042c8e43bfbee4710d3b844d310d0fe564736f6c63430008170033","linkReferences":{}},"methodIdentifiers":{"SET_ENS_NAME_FOR()":"33c658f1"},"id":2}