{"abi":[{"type":"function","name":"ADD_PRICE_FEED","inputs":[],"outputs":[{"name":"","type":"uint256","internalType":"uint256"}],"stateMutability":"view"},{"type":"function","name":"BURN_TOKENS","inputs":[],"outputs":[{"name":"","type":"uint256","internalType":"uint256"}],"stateMutability":"view"},{"type":"function","name":"CLAIM_TOKENS","inputs":[],"outputs":[{"name":"","type":"uint256","internalType":"uint256"}],"stateMutability":"view"},{"type":"function","name":"ISSUE_TOKEN","inputs":[],"outputs":[{"name":"","type":"uint256","internalType":"uint256"}],"stateMutability":"view"},{"type":"function","name":"MIGRATE_CONTROLLER","inputs":[],"outputs":[{"name":"","type":"uint256","internalType":"uint256"}],"stateMutability":"view"},{"type":"function","name":"MIGRATE_TERMINAL","inputs":[],"outputs":[{"name":"","type":"uint256","internalType":"uint256"}],"stateMutability":"view"},{"type":"function","name":"MINT_TOKENS","inputs":[],"outputs":[{"name":"","type":"uint256","internalType":"uint256"}],"stateMutability":"view"},{"type":"function","name":"PROCESS_FEES","inputs":[],"outputs":[{"name":"","type":"uint256","internalType":"uint256"}],"stateMutability":"view"},{"type":"function","name":"QUEUE_RULESETS","inputs":[],"outputs":[{"name":"","type":"uint256","internalType":"uint256"}],"stateMutability":"view"},{"type":"function","name":"REDEEM_TOKENS","inputs":[],"outputs":[{"name":"","type":"uint256","internalType":"uint256"}],"stateMutability":"view"},{"type":"function","name":"ROOT","inputs":[],"outputs":[{"name":"","type":"uint256","internalType":"uint256"}],"stateMutability":"view"},{"type":"function","name":"SET_ACCOUNTING_CONTEXT","inputs":[],"outputs":[{"name":"","type":"uint256","internalType":"uint256"}],"stateMutability":"view"},{"type":"function","name":"SET_CONTROLLER","inputs":[],"outputs":[{"name":"","type":"uint256","internalType":"uint256"}],"stateMutability":"view"},{"type":"function","name":"SET_PRIMARY_TERMINAL","inputs":[],"outputs":[{"name":"","type":"uint256","internalType":"uint256"}],"stateMutability":"view"},{"type":"function","name":"SET_PROJECT_METADATA","inputs":[],"outputs":[{"name":"","type":"uint256","internalType":"uint256"}],"stateMutability":"view"},{"type":"function","name":"SET_SPLITS","inputs":[],"outputs":[{"name":"","type":"uint256","internalType":"uint256"}],"stateMutability":"view"},{"type":"function","name":"SET_TERMINALS","inputs":[],"outputs":[{"name":"","type":"uint256","internalType":"uint256"}],"stateMutability":"view"},{"type":"function","name":"SET_TOKEN","inputs":[],"outputs":[{"name":"","type":"uint256","internalType":"uint256"}],"stateMutability":"view"},{"type":"function","name":"TRANSFER_TOKENS","inputs":[],"outputs":[{"name":"","type":"uint256","internalType":"uint256"}],"stateMutability":"view"},{"type":"function","name":"USE_ALLOWANCE","inputs":[],"outputs":[{"name":"","type":"uint256","internalType":"uint256"}],"stateMutability":"view"}],"bytecode":{"object":"0x61022261003a600b82828239805160001a60731461002d57634e487b7160e01b600052600060045260246000fd5b30600052607381538281f3fe73000000000000000000000000000000000000000030146080604052600436106101355760003560e01c80638bbab5c7116100b7578063a264ed781161007b578063a264ed78146101c4578063aae78103146101cc578063b56dcf9e146101d4578063ef1b4f3b146101dc578063f5edee14146101e457600080fd5b80638bbab5c71461019c5780638e1a67a0146101a45780638ee4f1b1146101ac5780639694c99a146101b45780639dd33b8d146101bc57600080fd5b806367e24614116100fe57806367e24614146101745780636c1943be1461017c57806373b6dec614610184578063751d74f21461018c57806376190b601461019457600080fd5b806299c3191461013a5780631d4f2293146101545780634445d4a51461015c5780635909c12f14610164578063644834be1461016c575b600080fd5b610142600c81565b60405190815260200160405180910390f35b610142600281565b610142600a81565b610142600181565b610142600b81565b610142600781565b610142600f81565b610142601181565b610142601381565b610142600981565b610142600881565b610142601481565b610142600381565b610142600681565b610142600d81565b610142600481565b610142601081565b610142600581565b610142601281565b610142600e8156fea264697066735822122091aaeafabcfff5ee933b184019215b3175ad88f3e98a6fcce0c7f91c43a24e7864736f6c63430008170033","linkReferences":{}},"methodIdentifiers":{"ADD_PRICE_FEED()":"751d74f2","BURN_TOKENS()":"644834be","CLAIM_TOKENS()":"0099c319","ISSUE_TOKEN()":"8bbab5c7","MIGRATE_CONTROLLER()":"a264ed78","MIGRATE_TERMINAL()":"b56dcf9e","MINT_TOKENS()":"4445d4a5","PROCESS_FEES()":"9694c99a","QUEUE_RULESETS()":"1d4f2293","REDEEM_TOKENS()":"8ee4f1b1","ROOT()":"5909c12f","SET_ACCOUNTING_CONTEXT()":"8e1a67a0","SET_CONTROLLER()":"f5edee14","SET_PRIMARY_TERMINAL()":"aae78103","SET_PROJECT_METADATA()":"67e24614","SET_SPLITS()":"ef1b4f3b","SET_TERMINALS()":"6c1943be","SET_TOKEN()":"76190b60","TRANSFER_TOKENS()":"9dd33b8d","USE_ALLOWANCE()":"73b6dec6"},"id":33}