{"abi":[{"type":"function","name":"ADD_PRICE_FEED","inputs":[],"outputs":[{"name":"","type":"uint256","internalType":"uint256"}],"stateMutability":"view"},{"type":"function","name":"BURN_TOKENS","inputs":[],"outputs":[{"name":"","type":"uint256","internalType":"uint256"}],"stateMutability":"view"},{"type":"function","name":"CLAIM_TOKENS","inputs":[],"outputs":[{"name":"","type":"uint256","internalType":"uint256"}],"stateMutability":"view"},{"type":"function","name":"ISSUE_TOKEN","inputs":[],"outputs":[{"name":"","type":"uint256","internalType":"uint256"}],"stateMutability":"view"},{"type":"function","name":"MIGRATE_CONTROLLER","inputs":[],"outputs":[{"name":"","type":"uint256","internalType":"uint256"}],"stateMutability":"view"},{"type":"function","name":"MIGRATE_TERMINAL","inputs":[],"outputs":[{"name":"","type":"uint256","internalType":"uint256"}],"stateMutability":"view"},{"type":"function","name":"MINT_TOKENS","inputs":[],"outputs":[{"name":"","type":"uint256","internalType":"uint256"}],"stateMutability":"view"},{"type":"function","name":"PROCESS_FEES","inputs":[],"outputs":[{"name":"","type":"uint256","internalType":"uint256"}],"stateMutability":"view"},{"type":"function","name":"QUEUE_RULESETS","inputs":[],"outputs":[{"name":"","type":"uint256","internalType":"uint256"}],"stateMutability":"view"},{"type":"function","name":"REDEEM_TOKENS","inputs":[],"outputs":[{"name":"","type":"uint256","internalType":"uint256"}],"stateMutability":"view"},{"type":"function","name":"ROOT","inputs":[],"outputs":[{"name":"","type":"uint256","internalType":"uint256"}],"stateMutability":"view"},{"type":"function","name":"SET_ACCOUNTING_CONTEXT","inputs":[],"outputs":[{"name":"","type":"uint256","internalType":"uint256"}],"stateMutability":"view"},{"type":"function","name":"SET_CONTROLLER","inputs":[],"outputs":[{"name":"","type":"uint256","internalType":"uint256"}],"stateMutability":"view"},{"type":"function","name":"SET_PRIMARY_TERMINAL","inputs":[],"outputs":[{"name":"","type":"uint256","internalType":"uint256"}],"stateMutability":"view"},{"type":"function","name":"SET_PROJECT_METADATA","inputs":[],"outputs":[{"name":"","type":"uint256","internalType":"uint256"}],"stateMutability":"view"},{"type":"function","name":"SET_SPLITS","inputs":[],"outputs":[{"name":"","type":"uint256","internalType":"uint256"}],"stateMutability":"view"},{"type":"function","name":"SET_TERMINALS","inputs":[],"outputs":[{"name":"","type":"uint256","internalType":"uint256"}],"stateMutability":"view"},{"type":"function","name":"SET_TOKEN","inputs":[],"outputs":[{"name":"","type":"uint256","internalType":"uint256"}],"stateMutability":"view"},{"type":"function","name":"TRANSFER_TOKENS","inputs":[],"outputs":[{"name":"","type":"uint256","internalType":"uint256"}],"stateMutability":"view"},{"type":"function","name":"USE_ALLOWANCE","inputs":[],"outputs":[{"name":"","type":"uint256","internalType":"uint256"}],"stateMutability":"view"}],"bytecode":{"object":"0x61026261003a600b82828239805160001a60731461002d57634e487b7160e01b600052600060045260246000fd5b30600052607381538281f3fe73000000000000000000000000000000000000000030146080604052600436106101755760003560e01c80638bbab5c7116100d7578063a264ed781161008b578063b56dcf9e11610070578063b56dcf9e14610214578063ef1b4f3b1461021c578063f5edee141461022457600080fd5b8063a264ed7814610204578063aae781031461020c57600080fd5b80638ee4f1b1116100bc5780638ee4f1b1146101ec5780639694c99a146101f45780639dd33b8d146101fc57600080fd5b80638bbab5c7146101dc5780638e1a67a0146101e457600080fd5b806367e246141161012e57806373b6dec61161011357806373b6dec6146101c4578063751d74f2146101cc57806376190b60146101d457600080fd5b806367e24614146101b45780636c1943be146101bc57600080fd5b80634445d4a51161015f5780634445d4a51461019c5780635909c12f146101a4578063644834be146101ac57600080fd5b806299c3191461017a5780631d4f229314610194575b600080fd5b610182600c81565b60405190815260200160405180910390f35b610182600281565b610182600a81565b610182600181565b610182600b81565b610182600781565b610182600f81565b610182601181565b610182601381565b610182600981565b610182600881565b610182601481565b610182600381565b610182600681565b610182600d81565b610182600481565b610182601081565b610182600581565b610182601281565b610182600e8156fea26469706673582212208b857d2c5629f1d4b00b16d8f899d5ba850004191faaac6a9f381ba85d6c18f164736f6c63430008170033","linkReferences":{}},"methodIdentifiers":{"ADD_PRICE_FEED()":"751d74f2","BURN_TOKENS()":"644834be","CLAIM_TOKENS()":"0099c319","ISSUE_TOKEN()":"8bbab5c7","MIGRATE_CONTROLLER()":"a264ed78","MIGRATE_TERMINAL()":"b56dcf9e","MINT_TOKENS()":"4445d4a5","PROCESS_FEES()":"9694c99a","QUEUE_RULESETS()":"1d4f2293","REDEEM_TOKENS()":"8ee4f1b1","ROOT()":"5909c12f","SET_ACCOUNTING_CONTEXT()":"8e1a67a0","SET_CONTROLLER()":"f5edee14","SET_PRIMARY_TERMINAL()":"aae78103","SET_PROJECT_METADATA()":"67e24614","SET_SPLITS()":"ef1b4f3b","SET_TERMINALS()":"6c1943be","SET_TOKEN()":"76190b60","TRANSFER_TOKENS()":"9dd33b8d","USE_ALLOWANCE()":"73b6dec6"},"id":29}