{
	"_format": "sphinx-sol-ct-artifact-1",
	"merkleRoot": "0xaaa7c0722e40b0a7dda1604e19b0246d9947ba52091c61bb06056d489312d020",
	"address": "0xfb71966eee1ddf5e6c31566bcf9a8c2a88a871ab",
	"sourceName": "src/JBProjectHandles.sol",
	"contractName": "JBProjectHandles",
	"chainId": "0xaa36a7",
	"abi": [
		{
			"inputs": [
				{
					"internalType": "address",
					"name": "trustedForwarder",
					"type": "address"
				}
			],
			"stateMutability": "nonpayable",
			"type": "constructor"
		},
		{
			"inputs": [],
			"name": "ENS_REGISTRY",
			"outputs": [
				{
					"internalType": "contract ENS",
					"name": "",
					"type": "address"
				}
			],
			"stateMutability": "view",
			"type": "function"
		},
		{
			"inputs": [],
			"name": "TEXT_KEY",
			"outputs": [
				{
					"internalType": "string",
					"name": "",
					"type": "string"
				}
			],
			"stateMutability": "view",
			"type": "function"
		},
		{
			"inputs": [
				{
					"internalType": "uint256",
					"name": "chainId",
					"type": "uint256"
				},
				{
					"internalType": "uint256",
					"name": "projectId",
					"type": "uint256"
				},
				{
					"internalType": "address",
					"name": "setter",
					"type": "address"
				}
			],
			"name": "ensNamePartsOf",
			"outputs": [
				{
					"internalType": "string[]",
					"name": "",
					"type": "string[]"
				}
			],
			"stateMutability": "view",
			"type": "function"
		},
		{
			"inputs": [
				{
					"internalType": "uint256",
					"name": "chainId",
					"type": "uint256"
				},
				{
					"internalType": "uint256",
					"name": "projectId",
					"type": "uint256"
				},
				{
					"internalType": "address",
					"name": "setter",
					"type": "address"
				}
			],
			"name": "handleOf",
			"outputs": [
				{
					"internalType": "string",
					"name": "",
					"type": "string"
				}
			],
			"stateMutability": "view",
			"type": "function"
		},
		{
			"inputs": [
				{
					"internalType": "address",
					"name": "forwarder",
					"type": "address"
				}
			],
			"name": "isTrustedForwarder",
			"outputs": [
				{
					"internalType": "bool",
					"name": "",
					"type": "bool"
				}
			],
			"stateMutability": "view",
			"type": "function"
		},
		{
			"inputs": [
				{
					"internalType": "uint256",
					"name": "chainId",
					"type": "uint256"
				},
				{
					"internalType": "uint256",
					"name": "projectId",
					"type": "uint256"
				},
				{
					"internalType": "string[]",
					"name": "parts",
					"type": "string[]"
				}
			],
			"name": "setEnsNamePartsFor",
			"outputs": [],
			"stateMutability": "nonpayable",
			"type": "function"
		},
		{
			"inputs": [],
			"name": "trustedForwarder",
			"outputs": [
				{
					"internalType": "address",
					"name": "",
					"type": "address"
				}
			],
			"stateMutability": "view",
			"type": "function"
		},
		{
			"anonymous": false,
			"inputs": [
				{
					"indexed": true,
					"internalType": "uint256",
					"name": "projectId",
					"type": "uint256"
				},
				{
					"indexed": false,
					"internalType": "string",
					"name": "handle",
					"type": "string"
				},
				{
					"indexed": false,
					"internalType": "string[]",
					"name": "parts",
					"type": "string[]"
				},
				{
					"indexed": false,
					"internalType": "address",
					"name": "caller",
					"type": "address"
				}
			],
			"name": "SetEnsNameParts",
			"type": "event"
		},
		{
			"inputs": [
				{
					"internalType": "string[]",
					"name": "parts",
					"type": "string[]"
				}
			],
			"name": "JBProjectHandles_EmptyNamePart",
			"type": "error"
		},
		{
			"inputs": [
				{
					"internalType": "string",
					"name": "part",
					"type": "string"
				}
			],
			"name": "JBProjectHandles_InvalidNamePart",
			"type": "error"
		},
		{
			"inputs": [],
			"name": "JBProjectHandles_NoParts",
			"type": "error"
		}
	],
	"args": [],
	"solcInputHash": "f4f365308c3f07532d6971bca4a90cd9",
	"bytecode": "0x60a060405234801561001057600080fd5b506040516115f73803806115f783398101604081905261002f91610040565b6001600160a01b0316608052610070565b60006020828403121561005257600080fd5b81516001600160a01b038116811461006957600080fd5b9392505050565b6080516115606100976000396000818160a70152818160fb0152610afc01526115606000f3fe608060405234801561001057600080fd5b506004361061007d5760003560e01c806385e969171161005b57806385e96917146101405780639973c28514610156578063c548f30914610176578063d9b0da2d146101bf57600080fd5b8063429eadd614610082578063572b6c05146100975780637da0a877146100f9575b600080fd5b610095610090366004610dcd565b6101d2565b005b6100e46100a5366004610f0a565b7f000000000000000000000000000000000000000000000000000000000000000073ffffffffffffffffffffffffffffffffffffffff90811691161490565b60405190151581526020015b60405180910390f35b7f00000000000000000000000000000000000000000000000000000000000000005b60405173ffffffffffffffffffffffffffffffffffffffff90911681526020016100f0565b61011b6e0c2e074ec69a0dfb2997ba6c7d2e1e81565b610169610164366004610f27565b6103f0565b6040516100f09190611046565b6101b26040518060400160405280600881526020017f6a75696365626f7800000000000000000000000000000000000000000000000081525081565b6040516100f09190611059565b6101b26101cd366004610f27565b6104fc565b8051600081900361020f576040517f614e175f00000000000000000000000000000000000000000000000000000000815260040160405180910390fd5b60005b8181101561032f57600083828151811061022e5761022e61106c565b60200260200101519050805160000361027e57836040517f2e7568090000000000000000000000000000000000000000000000000000000081526004016102759190611046565b60405180910390fd5b60005b81518110156103255781818151811061029c5761029c61106c565b01602001517fff00000000000000000000000000000000000000000000000000000000000000167f2e000000000000000000000000000000000000000000000000000000000000000361031d57816040517fb420b0e60000000000000000000000000000000000000000000000000000000081526004016102759190611059565b600101610281565b5050600101610212565b506000848152602081815260408083208684529091528120839161035161084f565b73ffffffffffffffffffffffffffffffffffffffff1673ffffffffffffffffffffffffffffffffffffffff168152602001908152602001600020908051906020019061039e929190610c44565b50827f2f08b921e66e530e39c2a5a6a1d27d9967e793a553c83bfaf3cb47433021a14c6103ca8461085e565b846103d361084f565b6040516103e29392919061109b565b60405180910390a250505050565b600083815260208181526040808320858452825280832073ffffffffffffffffffffffffffffffffffffffff851684528252808320805482518185028101850190935280835260609492939192909184015b828210156104ee578382906000526020600020018054610461906110e7565b80601f016020809104026020016040519081016040528092919081815260200182805461048d906110e7565b80156104da5780601f106104af576101008083540402835291602001916104da565b820191906000526020600020905b8154815290600101906020018083116104bd57829003601f168201915b505050505081526020019060010190610442565b5050505090505b9392505050565b600083815260208181526040808320858452825280832073ffffffffffffffffffffffffffffffffffffffff851684528252808320805482518185028101850190935280835260609493849084015b828210156105f757838290600052602060002001805461056a906110e7565b80601f0160208091040260200160405190810160405280929190818152602001828054610596906110e7565b80156105e35780601f106105b8576101008083540402835291602001916105e3565b820191906000526020600020905b8154815290600101906020018083116105c657829003601f168201915b50505050508152602001906001019061054b565b505050509050805160000361061c5750506040805160208101909152600081526104f5565b6000610627826108f7565b6040517f0178b8bf000000000000000000000000000000000000000000000000000000008152600481018290529091506000906e0c2e074ec69a0dfb2997ba6c7d2e1e90630178b8bf90602401602060405180830381865afa158015610691573d6000803e3d6000fd5b505050506040513d601f19601f820116820180604052508101906106b5919061113a565b905073ffffffffffffffffffffffffffffffffffffffff81166106ec576040518060200160405280600081525093505050506104f5565b604080518082018252600881527f6a75696365626f78000000000000000000000000000000000000000000000000602082015290517f59d1d43c00000000000000000000000000000000000000000000000000000000815260009173ffffffffffffffffffffffffffffffffffffffff8416916359d1d43c9161077491879190600401611157565b600060405180830381865afa158015610791573d6000803e3d6000fd5b505050506040513d6000823e601f3d9081017fffffffffffffffffffffffffffffffffffffffffffffffffffffffffffffffe01682016040526107d79190810190611178565b90506107e288610a21565b6107eb88610a21565b6040516020016107fc9291906111ef565b6040516020818303038152906040528051906020012081805190602001201461083a57604051806020016040528060008152509450505050506104f5565b6108438461085e565b98975050505050505050565b6000610859610adf565b905090565b805160609060015b8181116108f05782846108798385611276565b815181106108895761088961106c565b60200260200101516040516020016108a2929190611289565b6040516020818303038152906040529250818110156108de57826040516020016108cc91906112b8565b60405160208183030381529060405292505b806108e8816112f9565b915050610866565b5050919050565b60008060405160200161092d907f6574680000000000000000000000000000000000000000000000000000000000815260030190565b6040516020818303038152906040528051906020012060405160200161095d929190918252602082015260400190565b60405160208183030381529060405280519060200120905060008251905060005b818110156108f057828482815181106109995761099961106c565b60200260200101516040516020016109b19190611331565b604051602081830303815290604052805190602001206040516020016109e1929190918252602082015260400190565b604080517fffffffffffffffffffffffffffffffffffffffffffffffffffffffffffffffe08184030181529190528051602090910120925060010161097e565b60606000610a2e83610b61565b600101905060008167ffffffffffffffff811115610a4e57610a4e610d09565b6040519080825280601f01601f191660200182016040528015610a78576020820181803683370190505b5090508181016020015b7fffffffffffffffffffffffffffffffffffffffffffffffffffffffffffffffff017f3031323334353637383961626364656600000000000000000000000000000000600a86061a8153600a8504945084610a8257509392505050565b60003660143373ffffffffffffffffffffffffffffffffffffffff7f000000000000000000000000000000000000000000000000000000000000000016148015610b295750808210155b15610b5957600036610b3b8385611276565b610b4692829061134d565b610b4f91611377565b60601c9250505090565b339250505090565b6000807a184f03e93ff9f4daa797ed6e38ed64bf6a1f0100000000000000008310610baa577a184f03e93ff9f4daa797ed6e38ed64bf6a1f010000000000000000830492506040015b6d04ee2d6d415b85acef81000000008310610bd6576d04ee2d6d415b85acef8100000000830492506020015b662386f26fc100008310610bf457662386f26fc10000830492506010015b6305f5e1008310610c0c576305f5e100830492506008015b6127108310610c2057612710830492506004015b60648310610c32576064830492506002015b600a8310610c3e576001015b92915050565b828054828255906000526020600020908101928215610c8a579160200282015b82811115610c8a5782518290610c7a9082611410565b5091602001919060010190610c64565b50610c96929150610c9a565b5090565b80821115610c96576000610cae8282610cb7565b50600101610c9a565b508054610cc3906110e7565b6000825580601f10610cd3575050565b601f016020900490600052602060002090810190610cf19190610cf4565b50565b5b80821115610c965760008155600101610cf5565b7f4e487b7100000000000000000000000000000000000000000000000000000000600052604160045260246000fd5b604051601f82017fffffffffffffffffffffffffffffffffffffffffffffffffffffffffffffffe016810167ffffffffffffffff81118282101715610d7f57610d7f610d09565b604052919050565b600067ffffffffffffffff821115610da157610da1610d09565b50601f017fffffffffffffffffffffffffffffffffffffffffffffffffffffffffffffffe01660200190565b600080600060608486031215610de257600080fd5b83359250602080850135925060408086013567ffffffffffffffff80821115610e0a57600080fd5b818801915088601f830112610e1e57600080fd5b813581811115610e3057610e30610d09565b8060051b610e3f868201610d38565b918252838101860191868101908c841115610e5957600080fd5b87860192505b83831015610ed657823585811115610e775760008081fd5b8601603f81018e13610e895760008081fd5b88810135610e9e610e9982610d87565b610d38565b8181528f8a838501011115610eb35760008081fd5b818a84018c83013760009181018b01919091528352509187019190870190610e5f565b80985050505050505050509250925092565b73ffffffffffffffffffffffffffffffffffffffff81168114610cf157600080fd5b600060208284031215610f1c57600080fd5b81356104f581610ee8565b600080600060608486031215610f3c57600080fd5b83359250602084013591506040840135610f5581610ee8565b809150509250925092565b60005b83811015610f7b578181015183820152602001610f63565b50506000910152565b60008151808452610f9c816020860160208601610f60565b601f017fffffffffffffffffffffffffffffffffffffffffffffffffffffffffffffffe0169290920160200192915050565b60008282518085526020808601955060208260051b8401016020860160005b84811015611039577fffffffffffffffffffffffffffffffffffffffffffffffffffffffffffffffe0868403018952611027838351610f84565b98840198925090830190600101610fed565b5090979650505050505050565b6020815260006104f56020830184610fce565b6020815260006104f56020830184610f84565b7f4e487b7100000000000000000000000000000000000000000000000000000000600052603260045260246000fd5b6060815260006110ae6060830186610f84565b82810360208401526110c08186610fce565b91505073ffffffffffffffffffffffffffffffffffffffff83166040830152949350505050565b600181811c908216806110fb57607f821691505b602082108103611134577f4e487b7100000000000000000000000000000000000000000000000000000000600052602260045260246000fd5b50919050565b60006020828403121561114c57600080fd5b81516104f581610ee8565b8281526040602082015260006111706040830184610f84565b949350505050565b60006020828403121561118a57600080fd5b815167ffffffffffffffff8111156111a157600080fd5b8201601f810184136111b257600080fd5b80516111c0610e9982610d87565b8181528560208385010111156111d557600080fd5b6111e6826020830160208601610f60565b95945050505050565b60008351611201818460208801610f60565b7f3a00000000000000000000000000000000000000000000000000000000000000908301908152835161123b816001840160208801610f60565b01600101949350505050565b7f4e487b7100000000000000000000000000000000000000000000000000000000600052601160045260246000fd5b81810381811115610c3e57610c3e611247565b6000835161129b818460208801610f60565b8351908301906112af818360208801610f60565b01949350505050565b600082516112ca818460208701610f60565b7f2e00000000000000000000000000000000000000000000000000000000000000920191825250600101919050565b60007fffffffffffffffffffffffffffffffffffffffffffffffffffffffffffffffff820361132a5761132a611247565b5060010190565b60008251611343818460208701610f60565b9190910192915050565b6000808585111561135d57600080fd5b8386111561136a57600080fd5b5050820193919092039150565b7fffffffffffffffffffffffffffffffffffffffff00000000000000000000000081358181169160148510156113b75780818660140360031b1b83161692505b505092915050565b601f82111561140b576000816000526020600020601f850160051c810160208610156113e85750805b601f850160051c820191505b81811015611407578281556001016113f4565b5050505b505050565b815167ffffffffffffffff81111561142a5761142a610d09565b61143e8161143884546110e7565b846113bf565b602080601f831160018114611491576000841561145b5750858301515b7fffffffffffffffffffffffffffffffffffffffffffffffffffffffffffffffff600386901b1c1916600185901b178555611407565b6000858152602081207fffffffffffffffffffffffffffffffffffffffffffffffffffffffffffffffe08616915b828110156114de578886015182559484019460019091019084016114bf565b508582101561151a57878501517fffffffffffffffffffffffffffffffffffffffffffffffffffffffffffffffff600388901b60f8161c191681555b5050505050600190811b0190555056fea2646970667358221220af8e3f9082be1e665bce6c6efdcce98531fb654a792f523427bd9d6e2d6d3b6464736f6c63430008170033",
	"deployedBytecode": "0x",
	"gitCommit": "3d8aff925811a9ef84de64a21edfe524ef44bc51"
}