{"abi":[{"type":"constructor","inputs":[],"stateMutability":"nonpayable"},{"type":"function","name":"PERMISSIONS","inputs":[],"outputs":[{"name":"","type":"address","internalType":"contract IJBPermissions"}],"stateMutability":"view"},{"type":"function","name":"hasPermission","inputs":[{"name":"operator","type":"address","internalType":"address"},{"name":"account","type":"address","internalType":"address"},{"name":"projectId","type":"uint256","internalType":"uint256"},{"name":"permissionId","type":"uint256","internalType":"uint256"}],"outputs":[{"name":"","type":"bool","internalType":"bool"}],"stateMutability":"view"},{"type":"function","name":"hasPermissions","inputs":[{"name":"operator","type":"address","internalType":"address"},{"name":"account","type":"address","internalType":"address"},{"name":"projectId","type":"uint256","internalType":"uint256"},{"name":"permissionIds","type":"uint256[]","internalType":"uint256[]"}],"outputs":[{"name":"","type":"bool","internalType":"bool"}],"stateMutability":"view"},{"type":"function","name":"permissionsOf","inputs":[{"name":"operator","type":"address","internalType":"address"},{"name":"account","type":"address","internalType":"address"},{"name":"projectId","type":"uint256","internalType":"uint256"}],"outputs":[{"name":"","type":"uint256","internalType":"uint256"}],"stateMutability":"view"},{"type":"function","name":"setPermissionsForOperator","inputs":[{"name":"account","type":"address","internalType":"address"},{"name":"permissionsData","type":"tuple","internalType":"struct JBPermissionsData","components":[{"name":"operator","type":"address","internalType":"address"},{"name":"projectId","type":"uint256","internalType":"uint256"},{"name":"permissionIds","type":"uint256[]","internalType":"uint256[]"}]}],"outputs":[],"stateMutability":"nonpayable"},{"type":"event","name":"OperatorPermissionsSet","inputs":[{"name":"operator","type":"address","indexed":true,"internalType":"address"},{"name":"account","type":"address","indexed":true,"internalType":"address"},{"name":"projectId","type":"uint256","indexed":true,"internalType":"uint256"},{"name":"permissionIds","type":"uint256[]","indexed":false,"internalType":"uint256[]"},{"name":"packed","type":"uint256","indexed":false,"internalType":"uint256"},{"name":"caller","type":"address","indexed":false,"internalType":"address"}],"anonymous":false},{"type":"error","name":"PERMISSION_ID_OUT_OF_BOUNDS","inputs":[]},{"type":"error","name":"UNAUTHORIZED","inputs":[]}],"bytecode":{"object":"0x60a060405234801561001057600080fd5b503060805260805161092b61003d6000396000818160ff0152818161040e01526104dd015261092b6000f3fe608060405234801561001057600080fd5b50600436106100675760003560e01c806380deb2301161005057806380deb230146100a9578063c161c93f146100e7578063f434c914146100fa57600080fd5b80630f5932f01461006c57806350cce00814610094575b600080fd5b61007f61007a36600461062d565b610146565b60405190151581526020015b60405180910390f35b6100a76100a23660046106cb565b610215565b005b6100d96100b7366004610720565b6000602081815293815260408082208552928152828120909352825290205481565b60405190815260200161008b565b61007f6100f536600461075c565b61030a565b6101217f000000000000000000000000000000000000000000000000000000000000000081565b60405173ffffffffffffffffffffffffffffffffffffffff909116815260200161008b565b60008181805b82811015610204578585828181106101665761016661079e565b90506020020135915060ff8211156101aa576040517fd3e6807400000000000000000000000000000000000000000000000000000000815260040160405180910390fd5b73ffffffffffffffffffffffffffffffffffffffff898116600090815260208181526040808320938c1683529281528282208a8352905290812054831c60011690036101fc576000935050505061020c565b60010161014c565b506001925050505b95945050505050565b6102258282602001356001610391565b600061023c61023760408401846107cd565b610587565b90508060008061024f602086018661083c565b73ffffffffffffffffffffffffffffffffffffffff9081168252602080830193909352604091820160009081209188168082529184528281208785018035808452919095529290209390935591906102a7908561083c565b73ffffffffffffffffffffffffffffffffffffffff167ff8cdf10a0ce6189c6d069e97320ef146e2bcbd32d6c0b86dcbfbf3bd8578fa706102eb60408701876107cd565b86336040516102fd949392919061085e565b60405180910390a4505050565b600060ff821115610347576040517fd3e6807400000000000000000000000000000000000000000000000000000000815260040160405180910390fd5b5073ffffffffffffffffffffffffffffffffffffffff808516600090815260208181526040808320938716835292815282822085835290522054600190821c811614949350505050565b3373ffffffffffffffffffffffffffffffffffffffff8416811480159061047b57506040517fc161c93f00000000000000000000000000000000000000000000000000000000815273ffffffffffffffffffffffffffffffffffffffff8281166004830152858116602483015260448201859052606482018490527f0000000000000000000000000000000000000000000000000000000000000000169063c161c93f90608401602060405180830381865afa158015610455573d6000803e3d6000fd5b505050506040513d601f19601f8201168201806040525081019061047991906108d3565b155b801561054a57506040517fc161c93f00000000000000000000000000000000000000000000000000000000815273ffffffffffffffffffffffffffffffffffffffff8281166004830152858116602483015260006044830152606482018490527f0000000000000000000000000000000000000000000000000000000000000000169063c161c93f90608401602060405180830381865afa158015610524573d6000803e3d6000fd5b505050506040513d601f19601f8201168201806040525081019061054891906108d3565b155b15610581576040517f075fd2b100000000000000000000000000000000000000000000000000000000815260040160405180910390fd5b50505050565b60008181805b828110156105fb578585828181106105a7576105a761079e565b90506020020135915060ff8211156105eb576040517fd3e6807400000000000000000000000000000000000000000000000000000000815260040160405180910390fd5b600180831b94909417930161058d565b50505092915050565b803573ffffffffffffffffffffffffffffffffffffffff8116811461062857600080fd5b919050565b60008060008060006080868803121561064557600080fd5b61064e86610604565b945061065c60208701610604565b935060408601359250606086013567ffffffffffffffff8082111561068057600080fd5b818801915088601f83011261069457600080fd5b8135818111156106a357600080fd5b8960208260051b85010111156106b857600080fd5b9699959850939650602001949392505050565b600080604083850312156106de57600080fd5b6106e783610604565b9150602083013567ffffffffffffffff81111561070357600080fd5b83016060818603121561071557600080fd5b809150509250929050565b60008060006060848603121561073557600080fd5b61073e84610604565b925061074c60208501610604565b9150604084013590509250925092565b6000806000806080858703121561077257600080fd5b61077b85610604565b935061078960208601610604565b93969395505050506040820135916060013590565b7f4e487b7100000000000000000000000000000000000000000000000000000000600052603260045260246000fd5b60008083357fffffffffffffffffffffffffffffffffffffffffffffffffffffffffffffffe184360301811261080257600080fd5b83018035915067ffffffffffffffff82111561081d57600080fd5b6020019150600581901b360382131561083557600080fd5b9250929050565b60006020828403121561084e57600080fd5b61085782610604565b9392505050565b6060815283606082015260007f07ffffffffffffffffffffffffffffffffffffffffffffffffffffffffffffff85111561089757600080fd5b8460051b8087608085013760208301949094525073ffffffffffffffffffffffffffffffffffffffff9190911660408201520160800192915050565b6000602082840312156108e557600080fd5b8151801515811461085757600080fdfea26469706673582212207be4a08b021a8ca2a8a1027f550e6a5cf8bdc3f8ba6e66941bdecf90cec209cd64736f6c63430008170033","linkReferences":{}},"methodIdentifiers":{"PERMISSIONS()":"f434c914","hasPermission(address,address,uint256,uint256)":"c161c93f","hasPermissions(address,address,uint256,uint256[])":"0f5932f0","permissionsOf(address,address,uint256)":"80deb230","setPermissionsForOperator(address,(address,uint256,uint256[]))":"50cce008"},"id":22}