{"abi":[{"type":"constructor","inputs":[],"stateMutability":"nonpayable"},{"type":"function","name":"PERMISSIONS","inputs":[],"outputs":[{"name":"","type":"address","internalType":"contract IJBPermissions"}],"stateMutability":"view"},{"type":"function","name":"hasPermission","inputs":[{"name":"operator","type":"address","internalType":"address"},{"name":"account","type":"address","internalType":"address"},{"name":"projectId","type":"uint256","internalType":"uint256"},{"name":"permissionId","type":"uint256","internalType":"uint256"}],"outputs":[{"name":"","type":"bool","internalType":"bool"}],"stateMutability":"view"},{"type":"function","name":"hasPermissions","inputs":[{"name":"operator","type":"address","internalType":"address"},{"name":"account","type":"address","internalType":"address"},{"name":"projectId","type":"uint256","internalType":"uint256"},{"name":"permissionIds","type":"uint256[]","internalType":"uint256[]"}],"outputs":[{"name":"","type":"bool","internalType":"bool"}],"stateMutability":"view"},{"type":"function","name":"permissionsOf","inputs":[{"name":"operator","type":"address","internalType":"address"},{"name":"account","type":"address","internalType":"address"},{"name":"projectId","type":"uint256","internalType":"uint256"}],"outputs":[{"name":"","type":"uint256","internalType":"uint256"}],"stateMutability":"view"},{"type":"function","name":"setPermissionsForOperator","inputs":[{"name":"account","type":"address","internalType":"address"},{"name":"permissionsData","type":"tuple","internalType":"struct JBPermissionsData","components":[{"name":"operator","type":"address","internalType":"address"},{"name":"projectId","type":"uint256","internalType":"uint256"},{"name":"permissionIds","type":"uint256[]","internalType":"uint256[]"}]}],"outputs":[],"stateMutability":"nonpayable"},{"type":"event","name":"OperatorPermissionsSet","inputs":[{"name":"operator","type":"address","indexed":true,"internalType":"address"},{"name":"account","type":"address","indexed":true,"internalType":"address"},{"name":"projectId","type":"uint256","indexed":true,"internalType":"uint256"},{"name":"permissionIds","type":"uint256[]","indexed":false,"internalType":"uint256[]"},{"name":"packed","type":"uint256","indexed":false,"internalType":"uint256"},{"name":"caller","type":"address","indexed":false,"internalType":"address"}],"anonymous":false},{"type":"error","name":"PERMISSION_ID_OUT_OF_BOUNDS","inputs":[]},{"type":"error","name":"UNAUTHORIZED","inputs":[]}],"bytecode":{"object":"0x60a060405234801561001057600080fd5b50306080526080516107b361003d6000396000818160ef01528181610358015261040101526107b36000f3fe608060405234801561001057600080fd5b50600436106100575760003560e01c80630f5932f01461005c57806350cce0081461008457806380deb23014610099578063c161c93f146100d7578063f434c914146100ea575b600080fd5b61006f61006a366004610512565b610129565b60405190151581526020015b60405180910390f35b6100976100923660046105b0565b6101d2565b005b6100c96100a7366004610605565b6000602081815293815260408082208552928152828120909352825290205481565b60405190815260200161007b565b61006f6100e5366004610641565b6102ad565b6101117f000000000000000000000000000000000000000000000000000000000000000081565b6040516001600160a01b03909116815260200161007b565b60008181805b828110156101c15785858281811061014957610149610683565b90506020020135915060ff821115610174576040516334f9a01d60e21b815260040160405180910390fd5b6001600160a01b03898116600090815260208181526040808320938c1683529281528282208a8352905290812054831c60011690036101b957600093505050506101c9565b60010161012f565b506001925050505b95945050505050565b6101e2828260200135600161030e565b60006101f96101f46040840184610699565b610492565b90508060008061020c60208601866106ea565b6001600160a01b0390811682526020808301939093526040918201600090812091881680825291845282812087850180358084529190955292902093909355919061025790856106ea565b6001600160a01b03167ff8cdf10a0ce6189c6d069e97320ef146e2bcbd32d6c0b86dcbfbf3bd8578fa7061028e6040870187610699565b86336040516102a0949392919061070c565b60405180910390a4505050565b600060ff8211156102d1576040516334f9a01d60e21b815260040160405180910390fd5b506001600160a01b03808516600090815260208181526040808320938716835292815282822085835290522054600190821c811614949350505050565b336001600160a01b03841681148015906103c5575060405163c161c93f60e01b81526001600160a01b038281166004830152858116602483015260448201859052606482018490527f0000000000000000000000000000000000000000000000000000000000000000169063c161c93f90608401602060405180830381865afa15801561039f573d6000803e3d6000fd5b505050506040513d601f19601f820116820180604052508101906103c3919061075b565b155b801561046e575060405163c161c93f60e01b81526001600160a01b038281166004830152858116602483015260006044830152606482018490527f0000000000000000000000000000000000000000000000000000000000000000169063c161c93f90608401602060405180830381865afa158015610448573d6000803e3d6000fd5b505050506040513d601f19601f8201168201806040525081019061046c919061075b565b155b1561048c5760405163075fd2b160e01b815260040160405180910390fd5b50505050565b60008181805b828110156104ed578585828181106104b2576104b2610683565b90506020020135915060ff8211156104dd576040516334f9a01d60e21b815260040160405180910390fd5b600180831b949094179301610498565b50505092915050565b80356001600160a01b038116811461050d57600080fd5b919050565b60008060008060006080868803121561052a57600080fd5b610533866104f6565b9450610541602087016104f6565b935060408601359250606086013567ffffffffffffffff8082111561056557600080fd5b818801915088601f83011261057957600080fd5b81358181111561058857600080fd5b8960208260051b850101111561059d57600080fd5b9699959850939650602001949392505050565b600080604083850312156105c357600080fd5b6105cc836104f6565b9150602083013567ffffffffffffffff8111156105e857600080fd5b8301606081860312156105fa57600080fd5b809150509250929050565b60008060006060848603121561061a57600080fd5b610623846104f6565b9250610631602085016104f6565b9150604084013590509250925092565b6000806000806080858703121561065757600080fd5b610660856104f6565b935061066e602086016104f6565b93969395505050506040820135916060013590565b634e487b7160e01b600052603260045260246000fd5b6000808335601e198436030181126106b057600080fd5b83018035915067ffffffffffffffff8211156106cb57600080fd5b6020019150600581901b36038213156106e357600080fd5b9250929050565b6000602082840312156106fc57600080fd5b610705826104f6565b9392505050565b6060808252810184905260006001600160fb1b0385111561072c57600080fd5b8460051b808760808501376020830194909452506001600160a01b039190911660408201520160800192915050565b60006020828403121561076d57600080fd5b8151801515811461070557600080fdfea26469706673582212203854746ebef29a7b0c14970cb3ce6c4237276d36c3458df40eae2a7a4a75c13564736f6c63430008170033","linkReferences":{}},"methodIdentifiers":{"PERMISSIONS()":"f434c914","hasPermission(address,address,uint256,uint256)":"c161c93f","hasPermissions(address,address,uint256,uint256[])":"0f5932f0","permissionsOf(address,address,uint256)":"80deb230","setPermissionsForOperator(address,(address,uint256,uint256[]))":"50cce008"},"id":22}